:100000000C9420020C9467020C9467020C94670213
:100010000C9467020C9467020C9467020C946702BC
:100020000C9467020C9467020C94BC220C948F23EE
:100030000C944F1A0C9467020C9467020C9467029C
:100040000C9467020C9467020C9467020C9467028C
:100050000C9467020C94BA1A0C9467020C94670211
:100060000C9467020C9467020C9467020C9467026C
:100070000C9467020C9467020C9467020C9467025C
:100080000C9467020C9467020C9467020C9467024C
:100090000C9467020C9467020C9467020C9467023C
:1000A0000C9467020C9467020C9467023030005481
:1000B0000056001E0020002200240026002D0055BE
:1000C0000029001F0021002300250027002E005FCB
:1000D000006100140008001700180012002F0060D3
:1000E000002B001A0015001C000C00130030005CEF
:1000F000005E00040007000A000D000F0034005DE0
:10010000003900160009000B000E003300280059CA
:10011000005B001D000600050010003700E5005AD6
:1001200000E1001B001900110036003800310062A8
:10013000006300E3002C0057004C00E70001512948
:100140005DE000E20058005300E600E4002A0001F0
:100150000001003A003C003E004000420044000123
:100160000035003B003D003F0041004300450001D9
:100170000001000100010001000100010001000177
:100180000001000100010001000100010001000167
:100190000001000100010001000100010001000157
:1001A0000001000100010001000100010001000147
:1001B0000001000100010001000100010001000137
:1001C00000010001000100010001005200010001D6
:1001D00000010001000100010001005100010001C7
:1001E00000010001000100010050004F000100006B
:1001F000000000000000002A2B2800000000000082
:100200000000000000000000000029000000002C99
:100210001E3420212224342627252E362D37382738
:100220001E1F202122232425263333362E37381F44
:100230000405060708090A0B0C0D0E0F1011121306
:100240001415161718191A1B1C1D2F3130232D35A4
:100250000405060708090A0B0C0D0E0F10111213E6
:100260001415161718191A1B1C1D2F3130354C0088
:10027000000000000000000000000000000000007E
:100280000000007E0F00D4FFFFFFC7000000780AC7
:1002900003620065005600690000001403730065E6
:1002A000006E00640079007900650061006800005C
:1002B000000403090409025B00030100A0FA090419
:1002C0000000010301010009211101000122400089
:1002D0000705810308000A09040100020300000069
:1002E00009211101000122220007058203200001DB
:1002F00007050303200001090402000103000000B8
:1003000009211101000122BC000705840320000A15
:100310001201100100000008595356420100010269
:1003200000010660FF0961A1010962150026FF00B6
:100330009520750881020963150026FF0095207538
:10034000089102C005010902A10185020901A1006D
:100350000509190129051500250195057501810279
:100360009501750381010501093009311581257F4A
:1003700095027508810609381581257F9501750854
:100380008106050C0A38021581257F9501750881C3
:1003900006C0C005010980A101850319012AB70023
:1003A000150126B700950175108100C0050C0901E3
:1003B000A101850419012AA002150126A0029501B8
:1003C00075108100C005010906A101850505071901
:1003D000E029E71500250195087501810205071937
:1003E0000029EF1500250195F07501810205081916
:1003F000012905950575019102950175039101C0CB
:1004000005010906A101050719E029E715002501E5
:10041000950875018102950175088101050719008C
:1004200029FF150026FF00950675088100050819AB
:10043000012905950575019102950175039101C08A
:1004400011241FBECFEFDAE0DEBFCDBF04B603FE3E
:1004500027C080919E0290919F02A091A002B0912E
:10046000A1028730904BA740B04BD1F410929E026E
:1004700010929F021092A0021092A10214BE84B7A3
:10048000877F84BF0FB6F894A8958091600088613B
:1004900080936000109260000FBEE0E0F8E30995E1
:1004A00011E0A0E0B1E0E6E0FCE402C005900D92AE
:1004B000A639B107D9F722E0A6E9B1E001C01D9243
:1004C000AE39B207E1F70E94881F0C94B8250C944E
:1004D000000060E070E0CB010E94C5180C94D118B8
:1004E000FB0189329D4539F48281882321F08CEA11
:1004F00090E00E94EE0381E0089581E008950C945D
:10050000700208950C9481021F93CF93DF9300D063
:1005100000D00F92CDB7DEB749835A836B833091F9
:10052000AE0189819A8131111DC06623B9F0222361
:10053000A9F00E944217182F682F89819A810E9482
:10054000EC1669817A81812F0F900F900F900F9098
:100550000F90DF91CF911F910C946F0A0E94191791
:10056000182FEFCF0E94421769817A81EDCFFC01ED
:10057000262F408151816281738184810C94840291
:10058000CF93DF93D82FC92F60E00E94B7026D2F61
:100590007C2FDF91CF910C948202FF920F931F93D7
:1005A000CF93DF93E82FF0E0E151FE4FF490C82F96
:1005B000C695C695C695D0E0FE01E158FD4F049161
:1005C000877010E0082E02C0159507950A94E2F78F
:1005D00001701127C159DD4FFE01C491D0E002C066
:1005E000D595C7958A95E2F7C170DD2701151105EC
:1005F00019F081EE0E94500E209719F086EE0E94AD
:10060000500E8F2D0E94CC0ECD2B19F086EE0E943D
:100610009D0E012B41F081EEDF91CF911F910F9143
:10062000FF900C949D0EDF91CF911F910F91FF9041
:100630000895EF92FF920F931F93CF93DF93EC01F6
:10064000162F0AE08881882309F454C0813009F00C
:100650004EC08981813099F47E0122E0E20EF11CC6
:100660008A810E94CC0EE7012196812F815050F3A0
:10067000EFE9FFE03197F1F700C00000F7CF8230DB
:1006800041F47E0182E0E80EF11C8A810E94500E46
:10069000EACF833041F47E01E2E0EE0EF11C8A8164
:1006A0000E949D0EE0CF843011F02196DDCF2A818B
:1006B000229690E080E0AE014F5F5F4F2053330BF6
:1006C0002A30310548F0019778F2EFE9FFE03197E1
:1006D000F1F700C00000F7CF089FB001099F700D2F
:1006E0001124C901860F971F2981EA01E4CF0E94D6
:1006F000CD02BACFDF91CF911F910F91FF90EF9074
:10070000089560E00C941903EF92FF920F931F93EA
:10071000CF93DF938C01F62E8AE0E82EF8018491C6
:10072000882309F454C0813009F04DC0E8012196B6
:10073000FE018491813091F42196FE0184910E9402
:10074000CC0E8E010F5F1F4F8F2D815038F3EFE9D4
:10075000FFE03197F1F700C00000F7CF823039F4A5
:10076000E8012296FE0184910E94500EEACF833068
:1007700039F4E8012296FE0184910E949D0EE1CF9A
:100780008430F9F6E8012296FE01249190E080E0A1
:10079000FE0131962053330B2A30310548F0019782
:1007A00080F2EFE9FFE03197F1F700C00000F7CFEA
:1007B000E89EA001E99E500D1124C901840F951FE8
:1007C0002491EF01E5CF0E94CD02E801BACFDF917D
:1007D000CF911F910F91FF90EF90089560E00C94DE
:1007E00084038F929F92AF92BF92CF92DF92EF924B
:1007F000FF920F931F93CF93DF9300D000D0CDB71C
:10080000DEB76B017C0181E090E0A0E0B0E04C013C
:100810005D0104C0880C991CAA1CBB1C4A95D2F728
:10082000B501A4014C015D0104C0880C991CAA1CEF
:10083000BB1C2A95D2F7482959296A297B2904C06B
:10084000880F991FAA1FBB1F0A95D2F78A019B0127
:100850000C211D212E213F210417150726073707DC
:10086000F9F49C01AD012C293D294E295F292983EA
:100870003A834B835C8369817A818B819C810F9061
:100880000F900F900F90DF91CF911F910F91FF90DC
:10089000EF90DF90CF90BF90AF909F908F90089592
:1008A00080959095A095B0954C015D018C209D2080
:1008B000AE20BF2089829A82AB82BC82DCCF0F93AC
:1008C000CF93DF9300D000D0CDB7DEB7262F042F13
:1008D0004091190250911A0260911B0270911C0202
:1008E00049835A836B837C83482F69817A818B810A
:1008F0009C810E94F1030F900F900F900F90DF9159
:10090000CF910F910C94A6150E94F11A0E9497188E
:10091000811102C00E9434190C94EB060C94EE066F
:1009200008950E9499110E9490042FEF84E39CE0A7
:10093000215080409040E1F700C000000C94DE1A86
:100940000F931F93CF93DF93EC0161E00E94B702F6
:100950008C01BE010E944A08882359F1BE01C801DA
:100960000E947F02882329F1BE01C8010E94AF0BBB
:100970008823F9F0BE01C8010E94040C8823C9F045
:10098000BE01C8010E94D70C882399F08A81882370
:1009900039F001158CE5180751F00F3D1C4579F031
:1009A000CE01DF91CF911F910F910C947D020E9497
:1009B000910480E0DF91CF911F910F9108950E94E3
:1009C0003419F7CF08950C94E20481E008950C9453
:1009D000E504CF93C82F0E94E3048C2FCF910C9491
:1009E000E70490E080E008950895FC01EE0FFF1FFA
:1009F000E157FD4F859194910895CF93DF930E9425
:100A00006F0A0E940F06EC01811520E5920708F09D
:100A10004BC0811530E4930708F0B2C0803E9105C9
:100A200018F5803C910508F09FC0883A910570F454
:100A3000853A910508F095C08130910529F1049718
:100A4000813A910508F1D0E0C0E01EC08F3B9105CE
:100A5000D1F3C85AD0E0CC0FDD1FC75EDE4F09903E
:100A6000D881C02DD46410C0811540E2940780F471
:100A70008F3F910509F040F4883E910528F0805F92
:100A80009109D0654097F8F6CE01DF91CF91089596
:100A9000C11580E3D80708F46DC0CE019927D3FDB6
:100AA0006CC0EC01D06CF0CFC11595E5D90760F5AD
:100AB000C11524E5D20708F094C0C11533E5D3076A
:100AC00078F4C11542E5D40708F07AC0C11581E574
:100AD000D80708F458C0DC2FCC27C16FD06AD4CF18
:100AE000CE018370992721E030E002C0220F331F2E
:100AF0008A95E2F7C695C69590E2C99FE001112458
:100B0000C22BD32BDA68C0CFC1152AE5D207B0F4C7
:100B1000C11539E5D30708F074C0C11546E5D407FF
:100B200008F464C0CE0198558F3F910511F008F08C
:100B30008ACFDC2FCC27C06FD06AA6CFCE019056CB
:100B40008115904208F07FCF8D2F8F710E94A706EC
:100B500090E0982F882788279F719C012C2BE90112
:100B60004EC0A497D06490CF805C91090E94F50498
:100B7000EC018ACFCE019F70F9CFEC01D86C84CF05
:100B8000DF70D06A81CFCE0174E0969587957A9513
:100B9000E1F783702C2F26952695237040E2249F41
:100BA00090011124382B8C2F8370C1E0D0E002C05B
:100BB000CC0FDD1F8A95E2F7C22BD32BDC6864CF04
:100BC000CE018370992721E030E002C0220F331F4D
:100BD0008A95E2F7C695C69580E2C89FE001112488
:100BE000EBCFDC2FCC27C46FD06A4ECF8C2F0E9466
:100BF000A706C82FD0E0DC2FCC27CC27DF71D0622E
:100C000043CF8C2F8F700E94A70634E0D695C795EE
:100C10003A95E1F7CF70DC2FC82FD06935CF803EF1
:100C2000910599F1C8F48133910509F476C048F42F
:100C30008932910509F46AC08A32910509F474C0B9
:100C4000089589339105D1F082389105B9F0853343
:100C5000910509F454C00895843E910599F138F442
:100C6000823E9105F9F0833E910509F10895863E93
:100C7000910599F1873E9105B9F1089520918F0270
:100C80002370A1F080EE90E0089520918F0220FD66
:100C900052C03091900230FF09C024FF4FC090E055
:100CA00080E004C020918F0222FDF7CF08952091AB
:100CB0008F0222FD46C03091900230FDE3CF24FF29
:100CC000F5CFEDCF2091900221FFF0CF80918F02E0
:100CD00084FDE5CF87EE90E0089520918F0223FFF9
:100CE000E5CF24FDDCCFF6CF20918F0223FD2CC071
:100CF0003091900231FFE3CF84EE90E0089520918F
:100D00008F0225FFD3CF89E290E0089520918F02D2
:100D100025FFCCCF85E390E0089520918F0226FF38
:100D2000C5CF8AE290E0089520918F0226FFBECFC2
:100D300081E390E0089589E390E0089583EE90E0E8
:100D4000089582EE90E0089586EE90E008959091E7
:100D50008F0292FF06C0282F28712830F9F4877F70
:100D6000846093FF06C0282F28712831F1F4877E14
:100D700084612091900220FF06C0382F38713830EE
:100D8000D9F4877F816021FF06C0282F2871283180
:100D9000D1F4877E816194FD877E0895282F247188
:100DA0002430F9F68B7F8860DCCF282F2471243122
:100DB00001F78B7E8861DDCF382F3171313019F723
:100DC0008E7F8860E0CF282F2171213121F78E7E20
:100DD0008861E1CF08950C94EA0608950C94ED061D
:100DE000E82FF0E0EF57FD4F80810895089580EAE5
:100DF0008A95F1F70895F894E82FE295EF70F0E006
:100E000041A18F7021E030E0B90102C0660F771F69
:100E10008A95E2F7CB01962F9095942391A392A106
:100E2000892B82A378940895CF93DF93CFE4D1E008
:100E300089910E94FB0681E0C935D807C9F7C7E44C
:100E4000D1E089910E94FB0681E0CF34D807C9F731
:100E5000E7E7F2E0A1E8B2E011921D9282E0E1380A
:100E6000F807D1F78AE00E94AE07DF91CF910C948A
:100E70008404CF92DF92EF92FF920F931F93CF9350
:100E8000DF93CFE4D1E007E712E0D12CEE24E39426
:100E9000F12C8991F894E82FE295EF70F0E021A110
:100EA0008F70A70102C0440F551F8A95E2F7CA014F
:100EB000922F982B91A392A18095892382A3789455
:100EC0000E94F706E7E4F1E030E020E0C12C419118
:100ED000A42FA295AF70B0E090968C9190E04F70E7
:100EE00002C0959587954A95E2F780FD33C08E2D17
:100EF000022E01C0880F0A94EAF7C82A2F5F3F4FDD
:100F00002830310521F7FE01319780810E94FB06D0
:100F1000F8018081C81601F1C08281E0D82A0F5FF4
:100F20001F4FF1E0C935DF0709F0B3CF2D2D4AE09F
:100F300061E872E087E792E00E94AF070E948E04AA
:100F40008D2DDF91CF911F910F91FF90EF90DF904A
:100F5000CF90089580E0D1CF80E0E0CF0895FF9258
:100F60000F931F93CF93DF93F82E092F162FD72FB0
:100F7000C42F222349F081E0809398010E947F1AB8
:100F80009093970180939601809198018823A1F016
:100F900080919601909197010E94AB1A069760F09C
:100FA000EF2DF02FA12FBD2FCE0FDF2FD11DEC176E
:100FB000FD0741F410929801DF91CF911F910F919D
:100FC000FF90089581918D93F2CF82E290E00E948C
:100FD0007625813289F483E290E00E947625823082
:100FE00059F484E290E00E94762591E0853209F080
:100FF00090E0892F8170089580E0FCCFCF93C82FB7
:101000006FEF811161E282E290E00E9484256FEF30
:10101000C11162E083E290E00E9484256FEFC1116C
:1010200065E284E290E0CF910C94842580E00E94F8
:10103000FE070C9491180895CF93DF9300D000D051
:10104000CDB7DEB785E290E00E947625282F30E00C
:1010500050E040E0CA01B9010F900F900F900F903F
:10106000DF91CF91089585E290E00C9484250E9451
:101070001B080E94E50781110CC060E070E0CB0105
:101080000E9433080E94E6090E94D30A81E00C9472
:10109000FE070895CF939C01FB01C281CC2301F18F
:1010A00082519F45409720F58EEE820F0E94E30A01
:1010B000C0E08C2FCF91089581E00E94DC1543E0C1
:1010C00062E081E00E945F04F3CF81E00E940D1690
:1010D00043E062E081E00E945F04EBCF82E0F6CF64
:1010E00080319F4591F321313F45C1F3C1E0E1CF0C
:1010F0002031EFE53E0701F382E021313F45E9F27F
:10110000D8CF2FEFFC0120830895EF92FF920F9329
:101110001F93CF93DF93CDB7DEB72E970FB6F8941A
:10112000DEBF0FBECDBF8D839E83162FAD81BE81E6
:10113000EC91E150E33108F094C0F0E0E654FA4D50
:101140000C945525ED81FE81118289E08283612F07
:101150008D819E812E960FB6F894DEBF0FBECDBF57
:10116000DF91CF911F910F91FF90EF900C94801E13
:10117000AD81BE8111968C91823099F0833011F14E
:10118000813081F50E948B1A0E945B256F837887DE
:1011900089879A87ED81FE81628373838483958337
:1011A000D6CF0E941C080E945B256B877C878D87A9
:1011B0009E87AD81BE8112966D937D938D939C9396
:1011C0001597C5CFED80FE80B2E0EB0EF11C00E07C
:1011D000802F0E94F006F70181937F010F5F0A3094
:1011E000B9F7B5CF612F8D819E810E948108AFCF65
:1011F000AD81BE8111968C911197823099F712962C
:101200008D919D910D90BC91A02D89839A83AB8384
:10121000BC83BC01CD010E945B250E94330897CF9F
:10122000ED81FE814381628181810E94B809982706
:1012300089279827AD81BE8115969C938E9314972C
:1012400086CFED81FE812481358132272327322705
:101250004381628181810E94D10979CF0E94E60990
:1012600076CF8FEFAD81BE818C9371CF0E947C0AC7
:10127000ED81FE8181836BCF0E947E0A98278927AA
:101280009827AD81BE8112969C938E9311975FCF64
:10129000ED81FE81638170E081819281AF014C5FBD
:1012A0005F4F9827892798270E94810A50CFAD81E8
:1012B000BE8113966C91139770E011968D919C915D
:1012C0001297AD014C5F5F4F9827892798270E949E
:1012D000A80A3DCF0E94D30A3ACF0E94A509C8CFE1
:1012E000AD81BE8113966C91139770E011968D912C
:1012F0009C911297AD014C5F5F4F982789279827E3
:101300000E941F0A24CFED81FE81638170E08181FC
:101310009281AF014C5F5F4F9827892798270E94E1
:10132000450A15CF0E94160812CF8D819E810E941A
:10133000801EFFEF21EE84E0F15020408040E1F775
:1013400000C000000E94DE1A02CF84E0089590E100
:10135000699FB001112450E0440F551F640F751FA1
:1013600090EA899F600D711D1124CB018696089526
:101370000F931F93CF93DF930E94A7098C010E94C4
:101380007625C82FD0E0DC2FCC27C80101960E941B
:1013900076259E01282BC901DF91CF911F910F91D6
:1013A00008950F931F93CF93DF93122F032F0E9463
:1013B000A709EC01602F0E948425612FCE010196C0
:1013C000DF91CF911F910F910C948425AF92BF9222
:1013D000CF92DF92FF920F931F93CF93DF93B12CA5
:1013E000A12C00E0650110E013C0FE0125913491AD
:1013F0004F2D612F802F0E94D1092296F39488E00F
:10140000F812F3CF88E0C80ED11C1F5F1A3039F0F4
:10141000E601CC0FDD1FC155DF4FF12CE6CF0F5F8A
:1014200080E5A80EB11C0430E9F6DF91CF911F9141
:101430000F91FF90DF90CF90BF90AF900895EF9203
:10144000FF920F931F93CF93DF93EC018A017C01EE
:10145000E60EF71ECE018696CE15DF0539F4DF9134
:10146000CF911F910F91FF90EF900895C03822E027
:10147000D20740F40E947625F80180830F5F1F4F4A
:101480002196E8CFF8011082F9CFCF92DF92EF9248
:10149000FF920F931F93CF93DF938C016A017C011E
:1014A000E60EF71EEC01CE018696CE15DF0549F457
:1014B000DF91CF911F910F91FF90EF90DF90CF9030
:1014C0000895C03822E0D20740F4FE01E01BF10B82
:1014D000EC0DFD1D60810E9484252196E4CF462FEE
:1014E000672F843030F47A3020F4483010F40C94B4
:1014F000B80990E080E0089580E108958AE591E0E0
:101500000895EF92FF920F931F93CF93DF93EC0117
:101510008A017C01E60EF71ECE018A559D4FCE153D
:10152000DF0539F4DF91CF911F910F91FF90EF907C
:101530000895CA3521E0D20740F40E947625F801CB
:1015400080830F5F1F4F2196E7CFF8011082F9CFFC
:10155000CF92DF92EF92FF920F931F93CF93DF937F
:101560008C016A017C01E60EF71EEC01CE018A5562
:101570009D4FCE15DF0549F4DF91CF911F910F915B
:10158000FF90EF90DF90CF900895CA3521E0D20709
:1015900040F4FE01E01BF10BEC0DFD1D60810E948B
:1015A00084252196E3CFCF93DF93C6EAD2E060E0B3
:1015B000CE010E9484252196C11584E0D807B9F791
:1015C000DF91CF910895DF92EF92FF920F931F93D7
:1015D000CF93DF9300D000D0CDB7DEB7F82E8FE0E9
:1015E0008F1540F08FEF93E00E94762506EA12E017
:1015F0008823C1F00F900F900F900F90DF91CF9143
:101600001F910F91FF90EF90DF900895011584E0F6
:10161000180781F3C8010E947625811101C0FA9450
:101620000F5F1F4FF110F2CF8091150190911601BD
:10163000A0911701B091180189839A83AB83BC8371
:10164000DD24D39478018FEFE81AF80AC8010E94CC
:10165000762589831A82882369F29FEF980F933049
:1016600080F48A83D9820E5F1F4FC7010E947625BE
:101670008B83882309F4BECFCE0101960E9481039B
:10168000E1CF8701F9CF0F931F93CF93DF93C42F3F
:10169000D22FFC0182818823C9F040939B010E94D4
:1016A0007F1A90939A018093990180E28C0F883081
:1016B00008F050C0C77081E001C0880FCA95EAF7F2
:1016C000DF91CF911F910F910C94DF0E10919B0130
:1016D000141335C08091990190919A010E94AB1A20
:1016E000883C910560F5C0E2CD0F1D17B9F080E28E
:1016F000810F883040F4177081E001C0880F1A957F
:10170000EAF70E94E60EC83048F481E09D2F9770FA
:1017100001C0880F9A95EAF70E94DF0E802F0E9481
:10172000CC0EC830B8F4D77081E001C0880FDA95CC
:10173000EAF7DF91CF911F910F910C94E60E80E2B2
:101740008C0F883038F4C77081E001C0880FCA95CB
:10175000EAF7EFCFDF91CF911F910F9108950F938B
:101760009C01CB01243F4CE53407A1F190F4293DC5
:10177000FCE53F0749F12A3D4CE53407E9F1283DF6
:101780003C45C1F0FC0182818823E1F110929B016C
:1017900019C0263FFCE53F0719F1273F4CE5340708
:1017A00029F1253F3C4571F707E225EE44EE65EF50
:1017B0007CE505C006E221EE41EE68ED7CE50E9485
:1017C000430B80E00F91089507E225EE45EE69EDA9
:1017D0007CE5F5CF06E221EE40EE64EF7CE5EFCF4D
:1017E00006E221EE42EE66EF7CE5E9CF07E225EE68
:1017F00046EE67EF7CE5E3CF08E221E045EE6AEDD7
:101800007CE5DDCF81E0DECFCF93DF93EC01FB0100
:101810008281882309F4C9C0C631FCE5DF07E0F402
:10182000C2309CE5D907F0F00E94AA18909390026C
:1018300080938F02C631ECE5DE0720F5C230FCE56F
:10184000DF0798F480918F02909190020E94B8185F
:101850000E94991180E006C09E012B5F3C45293013
:10186000310510F3DF91CF910895FE01E350FC455F
:1018700080918F028160E331F10588F4E353FA4DE2
:101880000C945525CB5FDC45C930D105D8F6C05244
:10189000DA4DFE010C94552580918F028260809371
:1018A0008F02D0CF80918F028460F9CF80918F0218
:1018B0008860F5CF80919002816080939002C2CFC2
:1018C000809190028260F9CF80918F028061E7CF92
:1018D00080918F028062E3CF80918F028064DFCF9E
:1018E0000E94991180918F028068D9CF80918F02D8
:1018F0008C60D5CF809190028360DFCF80918F0282
:101900008E7FCDCF80918F028D7FC9CF80918F0246
:101910008B7FC5CF80918F02877FC1CF809190024E
:101920008E7FCBCF809190028D7FC7CF80918F0229
:101930008F7EB5CF80918F028F7DB1CF80918F0246
:101940008F7BADCF0E94991180918F028F77A7CFA7
:1019500080918F02837FA3CF809190028C7FADCF47
:1019600080918F0282FB992790F921E0922790FBCA
:1019700082F990FB83F993CF80919002982F9095F4
:1019800091708E7F892B90FB81F997CF0E949911DE
:1019900090918F02892F97FB87F9805880CF81E043
:1019A0000E9436194FCF80E0FBCF81E05BCFCF9311
:1019B000DF93EB0186319C4511F50E94DF179A8178
:1019C000992399F08A7A91E009F490E090939C0130
:1019D000811109C089E20E94BA170E942E1880E086
:1019E000DF91CF91089585E3F6CF80919C0181111D
:1019F00004C089E20E94C117F0CF85E3FBCF81E0EC
:101A0000EFCF9093A2018093A1010895E091A101ED
:101A1000F091A201309721F00190F081E02D09941E
:101A200080E00895DC01E091A101F091A2013097DE
:101A300099F080911401882351F080918F0287FFE3
:101A400006C08C9111968C93119785E08C9302803F
:101A5000F381E02DCD0109940895DC01E091A1010D
:101A6000F091A201309739F082E08C930480F581E7
:101A7000E02DCD010994089520919F013091A0019E
:101A80002817390771F09093A00180939F01E0918E
:101A9000A101F091A201309721F00680F781E02D9D
:101AA0000994089520919D0130919E0128173907CE
:101AB00071F090939E0180939D01E091A101F091BE
:101AC000A201309721F00084F185E02D099408955A
:101AD00085B7806885BF85B7806885BF08950895FC
:101AE00008950C946F0D08950C94730D0E94680D69
:101AF0000E94700D0C94710D81E008950C947C0D82
:101B0000089508950E94761A0E9414070E943708CB
:101B10000E94051B0C94740DBF92CF92DF92EF923E
:101B2000FF920F931F93CF93DF9300D000D00F92BB
:101B3000CDB7DEB70E94800D0E94810D0E9439074B
:101B40000E947E0D882309F45DC084EAC82E81E0DE
:101B5000D82E10E000E0B02E802F0E94F006F82E64
:101B6000F601E1906F01E81609F446C08091460243
:101B700081FD0E94F6069E2D9F2580E0EE24E394D1
:101B8000292F2E21A9F18983BA82FE2081E009F450
:101B900080E08B830E947F1A8160782F9D838C83E5
:101BA00049815A816B818D810E94220EF801EC558A
:101BB000FE4F8081E826E0820E94C31C0E94060D31
:101BC0009091A301891779F10E94060D8093A301DA
:101BD0000F900F900F900F900F90DF91CF911F916A
:101BE0000F91FF90EF90DF90CF90BF900C94E9049D
:101BF0008F5FEE0C883021F60F5F1F4F0A30110502
:101C000009F0A9CF8FEF89838A831B820E947F1AF4
:101C10008160782F9D838C8349815A816B818D816E
:101C20000E94220EC9CF0F900F900F900F900F902F
:101C3000DF91CF911F910F91FF90EF90DF90CF90A8
:101C4000BF900895CF93DF93CDB7DEB72B970FB634
:101C5000F894DEBF0FBECDBF4F83588769877A8760
:101C60008B871E8285E0FE013796DE01119601907A
:101C70000D928A95E1F749815A816B817C818D8132
:101C80009E812B960FB6F894DEBF0FBECDBFDF91BD
:101C9000CF910C94FC13FC01808191810C948417EA
:101CA000CF93C82F882309F446C08CEF8C0F813A5C
:101CB000A0F46C2F80910001909101010E944F19B6
:101CC000882329F08C2F0E94C1170E942E188C2F78
:101CD0000E94BA17CF910C942E1880E28C0F883096
:101CE00048F4C77081E001C0880FCA95EAF70E94E6
:101CF000E217F0CF8BE58C0F833038F42C2F245271
:101D0000330BC901CF910C943C0DE8E5EC0FE731A2
:101D100050F4F0E0EE0FFF1FE75AFE4F80819181F3
:101D2000CF910C94520DC03F30F08C2F0E94BE1BFF
:101D3000CF910C94A91CCF910895882361F19CEF59
:101D4000980F913A20F40E94C1170C942E1890E23B
:101D5000980F983050F4877091E001C0990F8A95E0
:101D6000EAF7892F0E94E817F0CF9BE5980F933090
:101D700020F490E080E00C943C0D98E5980F9731AA
:101D800020F490E080E00C94520D803F20F00E94FF
:101D9000261C0C94A91C0895CF93C82F0E94500EA6
:101DA000C93349F42FEF87EE93E0215080409040F3
:101DB000E1F700C000008C2FCF910C949D0E88237A
:101DC00021F00E94E2170C942E180895882321F028
:101DD0000E94E8170C942E180895AF92BF92CF92EC
:101DE000DF92EF92FF920F931F93CF93DF9300D078
:101DF00000D00F92CDB7DEB76C016D837983FC0103
:101E0000058102950F70128111110E9401180E9424
:101E1000D817E82E882391F01123D1F08981807F93
:101E2000803421F08D81805E883090F082E00E94C5
:101E300079180E94D81791E0E82EE926A980A2948B
:101E40009FE0A922B12CF501E751FA4D0C945525DC
:101E5000E12CF4CF09810F70F981F07F11F0029528
:101E6000007F1123B1F0002361F08D81805E883006
:101E700018F02D81211109C0802F0E94E2170E94C5
:101E80002E188D810E94500E15C0802F0E94F317CE
:101E9000F6CF8D810E949D0E002361F08D81805EC2
:101EA000883018F04D81411133C0802F0E94E8170F
:101EB0000E942E1858E0A51AB10864E0A616B104D5
:101EC00020F40E94060D0E94E904EE2009F4CCC122
:101ED0000E94D41780FDC8C1F60112820E94CE175D
:101EE0000E94DC15C6010E945B110E94CE170F9064
:101EF0000F900F900F900F90DF91CF911F910F9146
:101F0000FF90EF90DF90CF90BF90AF900C940D16A4
:101F1000802F0E94F917CCCF59815F70F52E69810F
:101F2000607F603219F0F29480EFF8227D81772390
:101F300069F0713049F1112391F1002351F1F6015B
:101F4000858180FF9ECF8F70858323C0112381F010
:101F5000011106C00E9415188F290E94DF0EAACF1A
:101F60000130C1F70E9415188F290E941B18A2CFBB
:101F7000011106C00E9424188F2D0E94E60E9ACFF0
:101F8000013009F497CFF6CF112329F0063008F07D
:101F900091CF8F2DE2CF053008F08CCFEDCF00230D
:101FA00059F3FD81F93349F42FEF47EE53E0215007
:101FB00040405040E1F700C000008D810E949D0E1E
:101FC00079CF898186958695837069F0813009F093
:101FD00071CF8D8199819370111102C090E080E0E2
:101FE0000E94520D67CF8D8199819370111102C0AB
:101FF00090E080E00E943C0D5DCF8D81112329F09F
:102000000E94BE1B0E94A91C55CF0E94261CFACF1D
:102010008981837009F050C011114CCF4D814295D8
:1020200046954770440F440F8D818F7090E0B0E06B
:10203000A0E0042E04C0880F991FAA1FBB1F0A949A
:10204000D2F76D8100E010E0980164FF0FC00FE04F
:1020500010E020E030E004C0000F111F221F331FEA
:102060004A95D2F70095109520953095798176950F
:10207000769573707D83B901A801482B592B6A2B83
:102080007B2B49835A836B837C835D8169817A8151
:102090008B819C81523051F0533059F0513019F0FE
:1020A0000E94521507CF0E942A1504CF0E947A156C
:1020B00001CF0E942815FECE8695112311F089814B
:1020C0008170882309F4F6CE4D814295469547707C
:1020D000440F440F8D818F7090E0B0E0A0E0042E9B
:1020E00004C0880F991FAA1FBB1F0A94D2F76D81E5
:1020F00000E010E0980164FF0FC00FE010E020E066
:1021000030E004C0000F111F221F331F4A95D2F781
:102110000095109520953095798176957695737018
:102120007D83B901A801482B592B6A2B7B2B49834E
:102130005A836B837C835D8169817A818B819C81E9
:10214000523051F0533059F0513019F00E949B1623
:10215000B1CE0E947316AECE0E94C316ABCE0E94C3
:10216000A615A8CE69816F706983112329F0862F87
:102170000E94DC158D81F1CE8D810E94E60E898151
:102180000E940D1697CE7D81723FA1F160F4703FE1
:10219000E1F0713F41F1112309F445C0011171CE05
:1021A00089818F7124C08D81833F49F1843F99F7E4
:1021B000112379F199819F719983892F0E94DC15F0
:1021C00063E089810E94641875CE112341F00530C7
:1021D00008F070CE89818F710E9442166BCE063056
:1021E00008F068CEF7CF89818F71112349F20E94E0
:1021F000DC1560CE89818F711123C9F3C1CF112302
:1022000029F089818F710E94B71554CE0E94B215B2
:1022100051CE81E00E947918023008F44BCE82E062
:102220000E94791847CE002361F0ED81E93309F06F
:10223000C4CEFFEF27EE43E0F15020404040E1F7ED
:10224000BACE89818F719CCF49814F706D81C60153
:102250000E94F1040E949C142DCE49814F706D8123
:10226000C6010E94F40426CE0F900F900F900F909D
:102270000F90DF91CF911F910F91FF90EF90DF9022
:10228000CF90BF90AF9008950F931F93CF93DF939C
:10229000EC01688179818A810E9490178C010E94EB
:1022A000EB160E942715B801CE01DF91CF911F9147
:1022B0000F910C94ED0ECF93DF93EC018B819C81F9
:1022C000892B29F08881998189238F3F59F4DF91E7
:1022D000CF910895CE010E944411CE01DF91CF919C
:1022E0000C94C002CE010E94A0048111F3CF0E9481
:1022F000D817882361F38A81882349F382E0DF912C
:10230000CF910C9479180E9401180E9412180E9413
:102310002E180E94D31D0E94A91C90E080E00E940C
:102320003C0D90E080E00C94520D0E94C8170C9474
:1023300083110E94F0170C949511282F892F8295F4
:102340008F70903C80F48A30B0F4843020F4823076
:1023500090F480E008958630E1F781E0283E88F02F
:10236000213FB9F70EC08C3011F08F3091F793FBFD
:10237000882780F9089581E0203F39F018F4283E3D
:1023800040F70895243F29F7FCCF08950E94841751
:102390000C949D11CF93DF9300D000D00F92CDB756
:1023A000DEB70F900F900F900F900F90DF91CF91AD
:1023B0000895CF93DF9300D000D000D0CDB7DEB723
:1023C00026960FB6F894DEBF0FBECDBFDF91CF913A
:1023D00008951F93CF93DF93E091AF0116E08091B2
:1023E000B0018E1304C0DF91CF911F910895CE2FBD
:1023F000D0E01E9FF0011124EF54FE4F4081518127
:1024000062817381848195810E94D911FE01319688
:10241000E770E5CF4091E1015091E2016091E30165
:102420007091E4018091E5019091E6010C94D9113D
:102430001F93CF93DF938091E601807FA9F4809171
:10244000E301882389F08091AF01C091B0016091D0
:10245000E1017091E201A091E401B091E501D62F74
:10246000D72316E0C81304C0DF91CF911F910895C0
:1024700090E0109711F0DF3F19F401968770F2CFCA
:10248000189F9001199F300D1124F901EF54FE4F50
:1024900041814713F2CF40814613EFCF4281411172
:1024A000ECCF438154814A1B5B0B483C510528F714
:1024B0008091E6018F7080618093E601F901EA5412
:1024C000FE4F80818F708061808381EE91E00E9459
:1024D0005B11DF91CF911F910C94E911AF92BF92E4
:1024E000CF92DF92EF92FF920F931F93CF93DF93E0
:1024F000CDB7DEB72B970FB6F894DEBF0FBECDBFBA
:102500008C0185E0F801DE01179601900D928A9505
:10251000E1F7F80140815181E28081EEC82E81E02F
:10252000D82E6091E4017091E5016115710509F4FF
:1025300044C19091E1012091E201822F89238F3FD4
:1025400009F43BC1A380B480F090E301F501E61BE0
:10255000F70BFF2009F4E0C08091E601382F307FAF
:10256000E83CF10508F0B2C0311179C0FE2C25130A
:1025700023C0941321C0E1101FC08F70806180932D
:10258000E6010E940A12C6010E945B118091E601D9
:10259000F80185838F2D2B960FB6F894DEBF0FBE02
:1025A000CDBFDF91CF911F910F91FF90EF90DF9002
:1025B000CF90BF90AF900895AB2829F0842F85234A
:1025C0008F3F09F016C180E0F82FF170DF2EE09107
:1025D000AF012091B00136E080FD1CC0EE20D1F2A9
:1025E0008091E60181608093E601F12CD3CF8E2F9C
:1025F00090E03E9FF0011124EF54FE4F618165137E
:1026000006C06081641303C06281E612E7CFFC015B
:102610003196E770E213EBCF4F8358878F8198850F
:102620000E948417292F22952F70903260F0225F2C
:102630002F70223078F49F7051F0F8019581907FCF
:1026400031F4D12C0AC09F7011F08823D1F3805E41
:102650008830B8F3C8010E945B11FD2C9BCF251375
:1026600006C0941304C0F801EE2009F470C04F8333
:1026700058878F8198850E94C611882319F1EE2012
:1026800009F18091E601803270F02091E1013091F2
:10269000E2013A8329831B82BD82AC828E83CE0104
:1026A00001960E945B1186E0F801A1EEB1E0019075
:1026B0000D928A95E1F70E9418120E940A12FF24D7
:1026C000F39468CFC8010E945B11F9CF311113C098
:1026D0007A2DBB86AA866E2D8B850E94CA1181EE4B
:1026E00091E00E945B1186E0F60111928A95E9F76C
:1026F0000E940A127ACF2513BACF9413B8CFE110F3
:10270000B6CFF8018583C8010E945B1186E0F6010F
:1027100011928A95E9F73ECFE83CF10508F040C0F8
:10272000FE2CEE2079F225132AC0941328C0809144
:10273000E60180FD1BC0982F907FC1F0F8018583D2
:10274000903F31F0982F907F905F8F70892B858319
:10275000C8010E945B1186E0F801A1EEB1E0019092
:102760000D928A95E1F70E940A1214CF86E0F801D3
:10277000A1EEB1E001900D928A95E1F70BCF4F8366
:1027800058878F8198850E94C61181118CCF8091C6
:10279000E60181608093E601C8010E945B11FACED8
:1027A0007A2DBB86AA866E2D8B850E94CA1186E083
:1027B000F60111928A95E9F7D6CFEE2009F482CF7F
:1027C0004F8358878F8198850E94C611F82E8823E1
:1027D00009F478CF86E0F801A1EEB1E001900D9206
:1027E0008A95E1F781EE91E00E944B0E0E9418124B
:1027F000BACF81E08E25E8CE1F93CF93DF93CDB77C
:10280000DEB72C970FB6F894DEBF0FBECDBF4F8357
:10281000588769877A878B879C87CE0107960E94A5
:102820006E12882369F08A859B85892B39F04F8148
:102830005885842F85238F3F09F077C016E065C047
:1028400086E0FE013796DE01119601900D928A9581
:10285000E1F76A857B856115710581F35F814885A4
:10286000842F85238F3F51F32091B00130E0C901BF
:10287000019687709927E091AF01E817190671F466
:102880000E9499111092B0011092AF0186E0E1EE22
:10289000F1E0DF011D928A95E9F7D0CF59834A8391
:1028A0007D836C8396E0929FD001939FB00D11249D
:1028B000AF54BE4FFE01319601900D929A95E1F70B
:1028C0008093B0010E94E911B9CF819FC00111240A
:1028D0008F549E4F0E946E128823E9F0E091AF0161
:1028E0001E9FF0011124EF54FE4F408151816281FF
:1028F0007381848195810E94D9118091AF0190E00C
:102900000196877099278093AF018091AF019091D4
:10291000B0018913DACF2C960FB6F894DEBF0FBE44
:10292000CDBFDF91CF911F91089569857A858B8501
:102930009C850E94D91182CFEF92FF920F931F9333
:10294000CF93DF938C01892B89F0F12CEE24E39453
:10295000E8012196F8018491843709F457C0A0F466
:10296000823009F43EC048F48130D1F0DF91CF913C
:102970001F910F91FF90EF9008959CEF980F903763
:10298000A8F70E94500E0AC0853709F44CC09CE796
:10299000980F903758F78F770E949D0E8E0116C0C2
:1029A0000E5F1F4FFE01849190E2980F983060F403
:1029B0008770FE2D01C0FF0F8A95EAF78F2F0E94C6
:1029C00004180E942E1802C00E94500E8F2D8150B4
:1029D00008F4BECFEFE9FFE03197F1F700C0000047
:1029E000F6CF0E5F1F4FFE01849190E2980F983052
:1029F00050F48770FE2D01C0FF0F8A95EAF78F2FE4
:102A00000E940A18DECF0E949D0EE0CF0E5F1F4F7E
:102A1000FE01C491C150D0F28FE99FE00197F1F718
:102A200000C00000F7CF0E5F1F4FFE01F490CECF25
:102A300008950C9418150E94191560931D02709347
:102A40001E0280931F02909320020C94831108951C
:102A50000C941B15CF93DF9300D000D0CDB7DEB719
:102A600069837A838B839C8380911D0290911E02DF
:102A7000A0911F02B091200229813A814B815C8193
:102A8000282B392B4A2B5B2B29833A834B835C837E
:102A9000CA01B9010F900F900F900F90DF91CF9165
:102AA0000C941B15CF93DF9300D000D0CDB7DEB7C9
:102AB00069837A838B839C8380911D0290911E028F
:102AC000A0911F02B091200229813A814B815C8143
:102AD000282339234A235B2329833A834B835C834E
:102AE000CA01B9010F900F900F900F90DF91CF9115
:102AF0000C941B15CF93DF9300D000D0CDB7DEB779
:102B000069837A838B839C8380911D0290911E023E
:102B1000A0911F02B091200229813A814B815C81F2
:102B2000282739274A275B2729833A834B835C83ED
:102B3000CA01B9010F900F900F900F90DF91CF91C4
:102B40000C941B150C9418150C94A2150E94A41536
:102B50006093190270931A0280931B0290931C02D7
:102B60000C94831160E070E0CB010C94A6150F93D8
:102B70001F93CF93DF9300D000D0CDB7DEB741E0F5
:102B800050E060E070E08A019B0104C0000F111F5B
:102B9000221F331F8A95D2F709831A832B833C8324
:102BA000C901B8010F900F900F900F90DF91CF9156
:102BB0001F910F910C94A6150F931F93CF93DF9342
:102BC00000D000D0CDB7DEB741E050E060E070E06B
:102BD00004C0440F551F661F771F8A95D2F7809156
:102BE000190290911A02A0911B02B0911C028A0155
:102BF0009B01082B192B2A2B3B2B09831A832B8330
:102C00003C83C901B8010F900F900F900F90DF9196
:102C1000CF911F910F910C94A6150F931F93CF93F3
:102C2000DF9300D000D0CDB7DEB741E050E060E0E8
:102C300070E004C0440F551F661F771F8A95D2F7B6
:102C400040955095609570958091190290911A0267
:102C5000A0911B02B0911C028A019B010823192339
:102C60002A233B2309831A832B833C83C901B801A0
:102C70000F900F900F900F90DF91CF911F910F91B8
:102C80000C94A6150F931F93CF93DF9300D000D021
:102C9000CDB7DEB741E050E060E070E004C0440F23
:102CA000551F661F771F8A95D2F780911902909160
:102CB0001A02A0911B02B0911C028A019B010827F5
:102CC00019272A273B2709831A832B833C83C901B1
:102CD000B8010F900F900F900F90DF91CF911F913F
:102CE0000F910C94A615CF93DF9300D000D0CDB7F1
:102CF000DEB769837A838B839C83809119029091DC
:102D00001A02A0911B02B0911C0229813A814B81C9
:102D10005C81282B392B4A2B5B2B29833A834B83ED
:102D20005C83CA01B9010F900F900F900F90DF9153
:102D3000CF910C94A615CF93DF9300D000D0CDB7E0
:102D4000DEB769837A838B839C838091190290918B
:102D50001A02A0911B02B0911C0229813A814B8179
:102D60005C81282339234A235B2329833A834B83BD
:102D70005C83CA01B9010F900F900F900F90DF9103
:102D8000CF910C94A615CF93DF9300D000D0CDB790
:102D9000DEB769837A838B839C838091190290913B
:102DA0001A02A0911B02B0911C0229813A814B8129
:102DB0005C81282739274A275B2729833A834B835D
:102DC0005C83CA01B9010F900F900F900F90DF91B3
:102DD000CF910C94A6150895990F990F990FE92F8B
:102DE000E80F877041E001C0440F8A95EAF7E69545
:102DF000E695E69585E0E89FF0011124E951FE4F44
:102E000030E020E070E05191DF011197CB01022EFC
:102E100002C0969587950A94E2F78170819585277F
:102E2000842385278C932F5F3F4F2530310559F739
:102E30000895E92FEE0FEE0FEE0FE80F982F977021
:102E4000E695E695E69585E0E89FF0011124E951C5
:102E5000FE4F50E040E080E0219130E0092E02C0BA
:102E6000369527950A94E2F721703327042E01C086
:102E7000220F0A94EAF7822B4F5F5F4F45305105CE
:102E800059F70895BF92CF92DF92EF92FF920F937E
:102E90001F93CF93DF938C01C0901902D0901A0238
:102EA000E0901B02F0901C0280911D0290911E0286
:102EB000A0911F02B0912002C82AD92AEA2AFB2A2F
:102EC000CFE1D0E0BC2ED701C6010C2E04C0B695D0
:102ED000A795979587950A94D2F780FD0EC0219704
:102EE00088F7B12C8B2DDF91CF911F910F91FF901F
:102EF000EF90DF90CF90BF900895B8018C2F0E9483
:102F0000FD04019761F3EECFCF93DF93D82FC92F44
:102F10000E9442176D2F7C2FDF91CF910C94FD04FE
:102F20001F93CF93DF93162FD72F9091AE01992344
:102F300039F0862F972FDF91CF911F910C94841732
:102F4000882391F0862F972F0E944217C82F682F51
:102F5000812F9D2F0E94EC16612F7D2F8C2FDF91EA
:102F6000CF911F910C94FD04862F972F0E94191763
:102F7000C82FF2CF682F80910001909101010C942D
:102F8000D319682F80910001909101010C94DE19F2
:102F900080910001909101010C94E9198091210226
:102FA000859585958595089580912102877008956E
:102FB00090912102977081E009F480E0089580915A
:102FC0004502089590914502982B909345020895EB
:102FD000982F90958091450289238093450208950A
:102FE00010924502089590914402982B90934402C8
:102FF0000895982F909580914402892380934402EC
:10300000089510924402089590914302982B909352
:1030100043020895982F90958091430289238093CD
:103020004302089510924302089580912202089568
:1030300008950C94181890912202981721F080930B
:1030400022020C941918089580912202882329F0F5
:103050001092220280E00C9419180895E09100016A
:10306000F0910101809145028083E0910001F0918F
:103070000101808190914402892B8083E0910001BD
:10308000F0910101808190914302892B808390917E
:103090002202992381F0E0910001F09101018081E9
:1030A000892B808380910001909101010E943B193E
:1030B00081110E94241880910001909101010C94CB
:1030C000120D08950C94611898E0899F90011124C5
:1030D000622B609321020E94DC158091210285956C
:1030E000859585950C9462181092210280E00C94CD
:1030F0006218909121028095892380932102282FC4
:10310000277071F4282F082E000C330B921713062A
:1031100039F08595859585950E940D160C94741847
:1031200008956FEF7FEF90E080E00C94A22590E08F
:1031300080E00E947E259C0181E02C3E3E4F09F0FC
:1031400080E0089582E090E00C94762583E090E0A2
:103150000C947625CF9384E090E00E947625C82FCA
:1031600081E290E00E947625982F8C2FCF910895D0
:10317000CF93682FC92F84E090E00E9484256C2FA4
:1031800081E290E0CF910C948425AB01BC018FE0EB
:1031900090E00C949625AB01BC0183E190E00C9487
:1031A000962560E070E0CB010C94CB186CEE7EEFBE
:1031B00090E080E00E94A22560E082E090E00E9422
:1031C000842560E083E090E00E94842510921D0237
:1031D00010921E0210921F021092200260E084E002
:1031E00090E00E94842560E081E290E00E948425C6
:1031F00060E085E090E00E94842560E086E090E059
:103200000E9484256FEF87E090E00E94842540E0D3
:1032100050E0BA0188E090E00E94962560E08DE0E1
:1032200090E00E94842540E050E0BA0188E190E0FF
:103230000E94962560E087E190E00E94842540E0AE
:1032400050E0BA018CE190E00E94962560E080E2B7
:1032500090E00E94842540E050E0BA0188E190E0CF
:103260000E9496250C9469020C94D618682F8EE063
:1032700090E00C948425FC013296809114018823FF
:1032800021F080918F029EE187FF96E080E09150CF
:1032900008F4089521912223D1F38F5FF8CF9C0188
:1032A000662301F1809114018823F1F080918F024F
:1032B00087FF1AC0462F469546954695603F90F485
:1032C000677081E090E002C0880F991F6A95E2F76D
:1032D000240F311DF901228130E02823392381E0B8
:1032E000232B71F480E00895F9013296285F3F4F57
:1032F0008191861721F0E217F307D1F7F3CF81E030
:1033000008959C01FC0132968FEF90E041914617A1
:1033100051F08F3F19F4411101C0892F9F5F963002
:10332000A9F78F3F09F40895280F311D87FD3A95BD
:10333000F901628308959C01FC013296285F3F4F9A
:103340008191861303C0DF0111971C92E217F307E6
:10335000B9F70895E62FE695E695E695603F68F49F
:10336000E80FF92FF11D677021E030E001C0220F56
:103370006A95EAF78281822B82830895E62FE6958B
:10338000E695E695603F70F4E80FF92FF11D677040
:1033900081E090E001C0880F6A95EAF780959281FC
:1033A00089238283089520911401222329F02091FA
:1033B0008F0227FD0C94AA190C94811920911401F5
:1033C000222329F020918F0227FD0C94BE190C9422
:1033D0009B19FC01329680911401882351F0809151
:1033E0008F0287FF06C08EE1DF011D928A95E9F703
:1033F000089586E0F9CF089508950C94FC190E9471
:10340000FD1980919502843049F11092470288E1BC
:1034100090E020E40FB6F894A895809360000FBE6A
:103420002093600080E00E94E9040E94FD1983B7A8
:10343000817F846083BF83B7816083BF78948895E0
:1034400083B78E7F83BF0FB6F894A89580916000F4
:10345000886180936000109260000FBE0895089507
:10346000CF930E94FB190E9439070E942F1AC0E0D7
:103470008C2F0E94F006811105C0CF5FCA30C1F7C2
:10348000CF91089581E0FCCF08950C94441A0E94D6
:1034900099110E94060D0E94E9040C94451A1F928E
:1034A0001FB61F9211248F939F93AF93BF93809168
:1034B0004702811113C080918B0290918C02A091E0
:1034C0008D02B0918E024196A11DB11D80938B0299
:1034D00090938C02A0938D02B0938E02BF91AF9116
:1034E0009F918F911F901FBE1F90189582E084BD01
:1034F00093E095BD9AEF97BD80936E0008952FB726
:10350000F89480918B0290918C02A0918D02B091E1
:103510008E022FBF0895CF93DF9300D000D0CDB798
:10352000DEB78FB7F89420918B0230918C024091D6
:103530008D0250918E0229833A834B835C838FBF27
:1035400069817A818B819C810F900F900F900F90F1
:10355000DF91CF9108959C014FB7F89480918B0231
:1035600090918C02A0918D02B0918E024FBF821B70
:10357000930B089578941F921FB61F9211248F9376
:103580009F93AF93BF9380918B0290918C02A091F7
:103590008D02B0918E020196A11DB11D80938B0208
:1035A00090938C02A0938D02B0938E02BF91AF9145
:1035B0009F918F911F901FBE1F90189587E797E7E7
:1035C000909301088093000888E19AE00FB6F89480
:1035D000A895809360000FBE90936000FFCF0C947D
:1035E00016080E9439078FE39CE90197F1F700C0A4
:1035F00000000E94390780E00E94F00680FF04C0AE
:103600000E94EF1A0C94DE1A0895CF93DF9300D036
:1036100000D0CDB7DEB70E949718811102C00E947A
:1036200034190E94A218809346020E94AA1890930F
:10363000900280938F020E94A618282F30E050E05D
:1036400040E0CA01B9010E942815809119029091A9
:103650001A02A0911B02B0911C0289839A83AB834A
:10366000BC83BC01CD010F900F900F900F90DF91A4
:10367000CF910C94A41580914E0280FF12C06091EE
:10368000070185E0689FB0011124759567957595D0
:10369000679560387105A8F561157105A1F1862F50
:1036A000089581FF09C06091070185E0689FB0011E
:1036B000112475956795EDCF6091070182FD0AC0D1
:1036C00080914D028823D1F090910601609107010D
:1036D000891728F085E0689FB0011124DACF869F12
:1036E000B001112485E0869F9001879F300D112441
:1036F000692F70E0C9010E944125CBCF65E070E0E1
:10370000CECF8FE7089581E0089580914E0280FF2B
:103710000CC06091030170E075956795759567958C
:103720006115710549F1862F089581FF06C06091EA
:10373000030170E075956795F3CF6091030182FDF9
:103740000BC090914C029923A1F0609102018091ED
:103750000301961738F0682F70E06038710500F3A8
:103760008FE70895899FC001112470E00E944125D0
:10377000F4CF61E070E0D7CF81E00895803F31F46D
:103780000E943B1B8195809352020895813F19F45A
:103790000E943B1BF8CF823F31F40E943B1B819576
:1037A000809351020895833F19F40E943B1BF8CF88
:1037B000893F29F40E94851B8093530208958A3F14
:1037C00021F40E94851B8195F7CF8B3F31F40E9435
:1037D000851B81958093540208958C3F19F40E94B3
:1037E000851BF8CF843F31F4809150028160809333
:1037F00050020895853F21F4809150028260F7CFF6
:10380000863F21F4809150028460F1CF873F21F4FC
:10381000809150028860EBCF883F21F48091500264
:103820008061E5CF8D3F31F480914E0281608093BD
:103830004E0208958E3F21F480914E028260F7CFB0
:103840008F3FB9F780914E028460F1CF9091510281
:10385000803F59F48091520287FF0DC010925202AE
:1038600091110BC010924D0208C0813F81F48091EC
:10387000520218169CF3992381F080915302909183
:103880005402892B09F064C010924C020895823FC3
:1038900049F497FFF0CF10925102809152028111AA
:1038A000ECCFE0CF833F19F41916ACF3E4CF2091AD
:1038B0005302893F29F41216F4F610925302DBCF1B
:1038C0008A3F19F427FFD7CFF8CF209154028B3FBE
:1038D00029F427FFD0CF10925402CDCF8C3F19F49A
:1038E0001216CCF3C8CF843F31F4809150028E7F02
:1038F00080935002C0CF853F21F4809150028D7F8C
:10390000F7CF863F21F4809150028B7FF1CF873F24
:1039100021F480915002877FEBCF883F21F4809182
:1039200050028F7EE5CF8D3F31F480914E028E7F25
:1039300080934E02A0CF8E3F21F480914E028D7F66
:10394000F7CF8F3F09F097CF80914E028B7FF0CF5A
:1039500008950E947F1A2091510230915202232B28
:1039600021F080934A0290934B02209153023091B0
:103970005402232B21F080934802909349028FE454
:1039800092E00C942D0DEF92FF920F931F93CF9323
:10399000DF9300D000D000D0CDB7DEB786E0EFE4F3
:1039A000F2E0DE01119601900D928A95E1F7E09028
:1039B0005102F09052020091530210915402109261
:1039C00051021092520210925302109254028F2D03
:1039D0008E2991F080914A0290914B020E94AB1A7D
:1039E0009C0180914D02882309F443C09091080105
:1039F0009217130608F44BC0802F812B91F0809111
:103A00004802909149020E94AB1A9C0180914C029D
:103A1000882309F47BC0909104019217130608F4DF
:103A200083C08091510290915202892B9091530250
:103A3000892B90915402892B11F00E94A91CEB82D2
:103A4000FC820D831E8386E0FE013196AFE4B2E076
:103A500001900D928A95E1F726960FB6F894DEBF95
:103A60000FBECDBFDF91CF911F910F91FF90EF90CF
:103A70000895409109019AE0499FA001112442173D
:103A8000530708F0B9CF8F5F80934D0202C08F3F7C
:103A9000D1F7EE2059F00E943B1B9FEF1E140CF44F
:103AA00091E0899F802D112480935102FF2059F0CD
:103AB0000E943B1B9FEF1F140CF491E0899F802D07
:103AC00011248093520230915102332309F494CF90
:103AD00020915202222309F48FCF45EB3403C00119
:103AE0001124992359F09093510245EB240390013E
:103AF0001124332339F0309352027ECF81E080933A
:103B00005102F3CF81E08093520276CF40910501BC
:103B10009AE0499FA00111244217530708F081CF72
:103B20008F5F80934C0202C08F3FD1F7002359F082
:103B30000E94851B9FEF10160CF491E0899F802D49
:103B4000112480935302112359F00E94851B9FEF8B
:103B500011160CF491E0899F802D1124809354025A
:103B600030915302332309F45CCF20915402222375
:103B700009F457CF45EB3403C0011124992359F0C0
:103B80009093530245EB240390011124332339F021
:103B90003093540246CF81E080935302F3CF81E00B
:103BA000809354023ECF86E0EFE4F2E0DF011D9205
:103BB0008A95E9F710924D0210924C0210924E0233
:103BC0000895809175020895CF93DF9300D00F92EE
:103BD000CDB7DEB790919502943011F589836A8351
:103BE0007B839093E9008FEF9091E800815095FDE1
:103BF00006C095ED9A95F1F700008111F5CF8091FF
:103C0000E80085FF0DC050E040E063E070E0CE01C9
:103C100001960E946A208091E8008E778093E800E8
:103C20000F900F900F90DF91CF910895BC0184E029
:103C30000C94E41DBC0183E00C94E41D24E020936B
:103C4000E9002FEF3091E800215035FD06C035ED39
:103C50003A95F1F700002111F5CF2091E80025FFFA
:103C60000BC050E040E066E070E00E946A20809166
:103C7000E8008E778093E8000895CF93DF93D82FE4
:103C8000C92F809114018823C1F180918F0287FF91
:103C900034C060E284E08093E9008FEF9091E80007
:103CA000815095FD06C095ED9A95F1F700008111C0
:103CB000F5CF8091E80085FF1DC08091140170E070
:103CC00050E040E0811104C050E040E068E070E066
:103CD0008D2F9C2F0E946A208091E8008E77809320
:103CE000E80080E2ED2FFC2FA5E5B2E001900D92F7
:103CF0008A95E1F7DF91CF91089568E081E0CBCF1D
:103D0000CF93603219F5209195022430F9F4C091D7
:103D1000E900CF703091EC00232F217030FD20E8B6
:103D2000C22B22E02093E9002091E80020FF0BC085
:103D300050E040E060E270E00E946A208091E8007C
:103D40008E778093E800CF70C093E900CF910895FB
:103D500080919402811109C00E9441220E949E22FA
:103D60008091E20084608093E200089510929402B2
:103D70000895089508950C94471A42E061EC81E09B
:103D80000E94BD2142E261EC84E00E94BD2142E23A
:103D900061EC82E00E94BD2142E260EC83E00C9481
:103DA000BD2180919702893089F148F4823009F46D
:103DB0009EC0833009F459C0813041F008958A30A3
:103DC00009F485C08B3009F46BC008958091960288
:103DD000813A09F049C08091E800877F8093E8002C
:103DE00080919A0290919B02892B61F460E285E5B3
:103DF00092E070E00E9408218091E8008B77809328
:103E0000E800089560E090E080E0F3CF80919602B2
:103E1000813251F580919A0290919B028D7F892B7E
:103E200019F58091E800877F8093E8008091E80091
:103E300082FF16C09091F3008091F200029729F45E
:103E40008091F1008B7F813021F48091F10080938B
:103E500075028091E8008B778093E8000C94F12143
:103E6000809195028111E2CF089580919602813A66
:103E7000D9F780919A0290919B02892BA9F78091A2
:103E8000E800877F8093E8008091E80080FFFCCF06
:103E9000809114018093F1008091E8008E77DCCF4F
:103EA00080919602813201F780919A0290919B0253
:103EB000892BD1F68091E800877F8093E8000E94EB
:103EC000F12180919802809314010C9499118091B2
:103ED0009602813249F68091E800877F8093E8005E
:103EE0000E94F12180919902809376020895809139
:103EF0009602813A09F0B8CF8091E800877F8093DD
:103F0000E8008091E80080FFFCCF80917602C2CF6C
:103F1000CDB7DEB7A0970FB6F894DEBF0FBECDBF0A
:103F200084B7877F84BF0FB6F894A895809160000E
:103F3000886180936000109260000FBE80E890E07E
:103F40000FB6F89480936100909361000FBE0E94B9
:103F5000760D0E9441220E949E228091E2008460A0
:103F60008093E20078940E9426250E94820D8AE0C8
:103F700091E00E94010D13E080919502853059F087
:103F80000E948C0D80919502843091F00E94800DEA
:103F90000E94810DF1CF0E94FF1980919302882326
:103FA00059F30E94301A882339F30E945420E4CF39
:103FB0001093E9008091E80082FFE8CF8091E8004B
:103FC00090E085FF09C050E040E060E270E0CE0183
:103FD00001960E94B92091E08091E8008B77809350
:103FE000E800992399F260E2CE0101960E948508CB
:103FF000CDCF0C94FB1FFC01CB01DA012F2F33270F
:1040000023303105D1F070F42130310509F447C077
:104010002230310569F48BE590E025EB32E02D93F9
:104020003C93089521323105E9F02232310539F10E
:1040300090E080E030E020E0F2CFCF019927E1303E
:1040400059F08230910559F0E1EBF2E0892B81F7CC
:10405000849190E09F01E3CFEBE9F2E0F9CFEFE844
:10406000F2E0F6CF6330710518F7880F991FFC0155
:10407000E057FE4F2081318189E090E0D0CF63305E
:104080007105B0F6FB01EE0FFF1FE657FE4F2081D2
:10409000318189579E4FFC01808190E0C0CF82E141
:1040A00090E020E133E0BBCF80E189BD82E189BDB2
:1040B00009B400FEFDCF8091D8008F7D8093D80099
:1040C0008091E00082608093E0008091E00081FDBB
:1040D000FCCF0895AF92BF92CF92DF92FF920F93E1
:1040E0001F93CF93DF936C01EB018A010E94102292
:1040F000F82E811123C00115110539F0F8018081D6
:104100009181C81BD90BC80ED91EB12CA12C2097A8
:10411000A9F08091E80085FD22C08091E8008E77AB
:104120008093E80001151105A1F0F80180819181CB
:10413000A80EB91EB182A08285E0F82E8F2DDF91E6
:10414000CF911F910F91FF90DF90CF90BF90AF90D4
:1041500008950E9410228823D1F2F82EEFCFF601A5
:1041600081916F018093F1002197FFEFAF1ABF0A91
:10417000CECFAF92BF92CF92DF92FF920F931F9359
:10418000CF93DF936C01EB018A010E941022F82E7D
:10419000811123C00115110539F0F8018081918149
:1041A000C81BD90BC80ED91EB12CA12C2097A9F081
:1041B0008091E80085FD22C08091E8008B77809394
:1041C000E80001151105A1F0F80180819181A80E88
:1041D000B91EB182A08285E0F82E8F2DDF91CF919C
:1041E0001F910F91FF90DF90CF90BF90AF900895F7
:1041F0000E9410228823D1F2F82EEFCF8091F10097
:10420000F60181936F012197FFEFAF1ABF0ACECF5E
:10421000FC01CB0120919C0230919D0226173707AB
:1042200090F0009729F42091E8002E772093E80081
:1042300040E0009751F4411108C08091E80082FFEE
:1042400031C080E00895C901F3CF20919502222367
:10425000A9F12530A9F12091E80023FD2DC020917E
:10426000E80022FDEACF2091E80020FFE2CF309164
:10427000F3002091F200009719F02830310558F032
:1042800041E02830310509F040E02091E8002E7728
:104290002093E800CECF41914093F10001972F5F2A
:1042A0003F4FE9CF80919502882341F0853041F05E
:1042B0008091E80083FFC1CF81E0089582E00895F6
:1042C00083E00895FC01CB0120919C0230919D0276
:1042D0002617370790F0009729F42091E8002E77F1
:1042E0002093E80040E0009751F4411108C080910C
:1042F000E80082FF32C080E00895C901F3CF209129
:1043000095022223B1F12530B1F12091E80023FD7F
:104310002EC02091E80022FDEACF2091E80020FF86
:10432000E2CF3091F3002091F200009719F028308D
:10433000310558F041E02830310509F040E0209186
:10434000E8002E772093E800CECF44914093F1000F
:10435000319601972F5F3F4FE8CF809195028823D8
:1043600041F0853041F08091E80083FFC0CF81E0CB
:10437000089582E0089583E00895982F973028F0FB
:104380008F708093E90081E008959093E900242FD5
:10439000762F50E0981731F07091EC002091ED00ED
:1043A0005091F00021FD02C09F5FE8CF3091EB00FB
:1043B0003E7F3093EB003091ED003D7F3093ED0078
:1043C0003091EB0031603093EB007093EC00209360
:1043D000ED005093F0002091EE0027FDE5CF80E046
:1043E00008958091960287FF13C08091E80082FFB4
:1043F00006C08091E8008B778093E80004C080912C
:1044000095028111F2CF0895809195028823D9F306
:104410008091E80080FFF8CF8091E8008E77ECCFA4
:104420002091E4003091E50095E6A9012091EC008F
:10443000822F817020FF06C08091E80080FF06C0B7
:1044400080E008952091E80022FD1AC08091950235
:10445000882389F0853089F08091EB0085FD0FC0BD
:104460002091E4003091E50042175307F9F2915092
:10447000E1F684E0089582E0089583E0089581E004
:1044800008950E94AF220E94B722E0EEF0E0808102
:1044900081608083E8EDF0E080818F77808319BCB4
:1044A000A7EDB0E08C918E7F8C9380818F7E80838E
:1044B0001092940208950F931F93CF93DF930E945D
:1044C000AF220E94B722C8EDD0E088818F77888321
:1044D00088818068888388818F7D888319BC109249
:1044E000950210929102109293021092920200EEA5
:1044F00010E0F80180818B7F8083888181608883D0
:1045000042E060E080E00E94BD21E1EEF0E08081C9
:104510008E7F8083E2EEF0E0808181608083808105
:1045200088608083F80180818E7F808388818061AC
:104530008883DF91CF911F910F910895E8EDF0E00E
:1045400080818F7E8083E7EDF0E0808181608083D1
:1045500084E082BF81E0809394020C945B22E8EDBA
:10456000F0E080818E7F80831092E20008951092A7
:10457000DA001092E10008951F920F920FB60F9289
:1045800011242F933F934F935F936F937F938F9358
:104590009F93AF93BF93EF93FF938091E10082FFCE
:1045A0000BC08091E20082FF07C08091E1008B7F09
:1045B0008093E1000E9425258091DA0080FF19C0D8
:1045C0008091D80080FF15C08091DA008E7F8093A3
:1045D000DA008091D90080FF94C080E189BD82E13A
:1045E00089BD09B400FEFDCF81E0809395020E9451
:1045F000A81E8091E10080FF19C08091E20080FF39
:1046000015C08091E2008E7F8093E2008091E200ED
:1046100080618093E2008091D80080628093D8000E
:1046200019BC85E0809395020E94BA1E8091E1003A
:1046300084FF29C08091E20084FF25C080E189BD0C
:1046400082E189BD09B400FEFDCF8091D8008F7D45
:104650008093D8008091E1008F7E8093E10080916B
:10466000E2008F7E8093E2008091E200816080937F
:10467000E20080919102882309F449C084E080938C
:1046800095020E94BB1E8091E10083FF29C08091AA
:10469000E20083FF25C08091E100877F8093E100E5
:1046A00082E080939502109291028091E1008E7FCA
:1046B0008093E1008091E2008E7F8093E200809100
:1046C000E20080618093E20042E060E080E00E94CE
:1046D000BD218091F00088608093F0000E94B91E97
:1046E000FF91EF91BF91AF919F918F917F916F91CA
:1046F0005F914F913F912F910F900FBE0F901F90A0
:10470000189519BC109295020E94B61E72CF809126
:10471000E30087FD02C081E0B2CF83E0B0CF1F92FB
:104720000F920FB60F9211242F933F934F935F93E5
:104730006F937F938F939F93AF93BF93CF93DF93A9
:10474000EF93FF93D091E900DF708091EC00C82FC8
:10475000C17080FDC0E81092E9008091F000877F71
:104760008093F00078940E94D3231092E900809106
:10477000F00088608093F000CD2BCF70C093E900EB
:10478000FF91EF91DF91CF91BF91AF919F918F9169
:104790007F916F915F914F913F912F910F900FBE3D
:1047A0000F901F9018951F93CF93DF93CDB7DEB76F
:1047B000AA970FB6F894DEBF0FBECDBF86E992E090
:1047C000FC0101962091F100208322E08E399207AE
:1047D000B9F70E94D11E8091E80083FF1EC180912D
:1047E0009602909197029A3008F017C1E92FF0E0F5
:1047F000E750FA4D0C945525803899F0823809F02D
:104800000CC180919A028F70873008F006C18093A6
:10481000E9008091EB0085FB882780F91092E90080
:1048200006C08091920290919302911182609091C2
:10483000E800977F9093E8008093F1001092F100D8
:104840008091E8008E77E5C0882309F4D3C08230D8
:1048500009F0E3C0809198028111D6C080919A023C
:104860008F702FEF280F263008F0D7C08093E90013
:104870002091EB0020FFC8C0933031F48091EB0011
:1048800080628093EB00C0C09091EB0090619093A8
:10489000EB0021E030E001C0220F8A95EAF7209377
:1048A000EA001092EA008091EB008860EACF811163
:1048B000B4C0109198021F778091E3008078812B1B
:1048C0008093E3008091E800877F8093E8000E9456
:1048D000F1218091E80080FFFCCF8091E3008068A7
:1048E0008093E30082E0111183E08093950295C0EC
:1048F0008058823008F091C080919802909199027E
:104900008C3D23E09207A1F583E08A838AE28983C4
:104910004FB7F894DE01139620E03EE051E2E32F1A
:10492000F0E050935700E49120FF03C0E295EF7050
:104930003F5FEF708E2F90E0EA30C0F0C7968D9306
:104940009D932F5F243159F74FBF8091E800877FF7
:104950008093E8006AE270E0CE0101960E9408218F
:104960008091E8008B778093E80057C0C096E7CF2E
:1049700060919A0270919B02AE014F5F5F4F0E945F
:10498000F91FBC01892B09F448C08091E800877F9A
:104990008093E80089819A810E946221E1CF80386A
:1049A000E1F58091E800877F8093E8008091910293
:1049B0008093F10045CF811130C0909198029230E0
:1049C00060F58091E800877F8093E80090939102E2
:1049D0000E94F12180919102882311F084E005C0AA
:1049E0008091E30087FDFACF81E0809395020E94D9
:1049F000BD1E13C080919802813079F481E093301C
:104A000009F080E0809393021092E9008091E80021
:104A1000877F8093E8000E94F1218091E80083FF66
:104A20000AC08091E800877F8093E8008091EB00C6
:104A300080628093EB00AA960FB6F894DEBF0FBE9B
:104A4000CDBFDF91CF911F9108950895CF938091AD
:104A500095028823A1F0C091E900CF709091EC00FD
:104A6000892F817090FD80E8C82B1092E900809119
:104A7000E80083FD0E94D323CF70C093E900CF915B
:104A8000089597FB072E16F4009407D077FD09D000
:104A90000E94622507FC05D03EF4909581959F4FBA
:104AA0000895709561957F4F0895EE0FFF1F059053
:104AB000F491E02D0994692796276927782787279D
:104AC00078270895AA1BBB1B51E107C0AA1FBB1F73
:104AD000A617B70710F0A61BB70B881F991F5A958A
:104AE000A9F780959095BC01CD010895F999FECF65
:104AF00092BD81BDF89A992780B50895A8E1B0E0EC
:104B000042E050E00C94AA25262FF999FECF92BDE1
:104B100081BDF89A019700B4021639F01FBA20BD82
:104B20000FB6F894FA9AF99A0FBE08950396272FB4
:104B30000E9485250E948425252F0E948525242FEB
:104B40000C9485250196272F0E9485250C94842599
:104B5000DC01CB01FC01F999FECF06C0F2BDE1BD3D
:104B6000F89A319600B40D9241505040B8F708952C
:104B7000F894FFCFA208B808F808100921092E09F7
:104B80003109310931099209950936093C09480969
:104B900057096A096D09700983094C0C520C560CAF
:104BA000640C680C6C0C700C760C7E0C820C860C01
:104BB0008A0C960C9A0C9E0CA20CA80CC60CB00C7D
:104BC0005A0C600C8E0C920C7A0CAC0CBC0CCF0CFA
:104BD000D30C2A0F2A0F8C0F8C0FE10FFD0F5A0FE9
:104BE0005A0F0810B210C310C31024115A0F5A0FD5
:104BF0002D11FC2324240D2524240D25572478244D
:064C00000D25CF24DB248A
:104C060023022808641E140A321EE11D3D1E1E1EC4
:104C16001A1E161E0100000000E200E900EA00B5B7
:104C260000B600B700CD008301CC008A0192019442
:104C3600012102230224022502260227022A02B3A8
:104C460000B4006F007000F4F5F6F73136343533F2
:104C56003293929190946697C6E200E900EA00B515
:104C660000B600B700CD008301CC008A0192019402
:104C7600012102230224022502260227022A02B368
:104C860000B4006F0070004022BC000422034403FD
:064C9600C702E00200036A
:00000001FF
