:100000000C94FF010C9446020C9446020C94460298
:100010000C9446020C9446020C9446020C94460240
:100020000C9446020C9446020C94601D0C94331EF2
:100030000C94D7150C9446020C9446020C9446027C
:100040000C9446020C9446020C9446020C94460210
:100050000C9446020C9422160C9446020C94460210
:100060000C9446020C9446020C9446020C944602F0
:100070000C9446020C9446020C9446020C944602E0
:100080000C9446020C9446020C9446020C944602D0
:100090000C9446020C9446020C9446020C944602C0
:1000A0000C9446020C9446020C94460230300054E4
:1000B0000056001E0020002200240026002D0055BE
:1000C0000029001F0021002300250027002E005FCB
:1000D000006100140008001700180012002F0060D3
:1000E000002B001A0015001C000C00130030005CEF
:1000F000005E00040007000A000D000F0034005DE0
:10010000003900160009000B000E003300280059CA
:10011000005B001D000600050010003700E5005AD6
:1001200000E1001B001900110036003800310062A8
:10013000006300E3002C0057004C00E70001512948
:100140005DE000E20058005300E600E4002A0001F0
:100150000001003A003C003E004000420044000123
:100160000035003B003D003F0041004300450001D9
:100170000001000100010001000100010001000177
:100180000001000100010001000100010001000167
:100190000001000100010001000100010001000157
:1001A0000001000100010001000100010001000147
:1001B0000001000100010001000100010001000137
:1001C00000010001000100010001005200010001D6
:1001D00000010001000100010001005100010001C7
:1001E00000010001000100010050004F000100006B
:1001F000000000000000002A2B2800000000000082
:100200000000000000000000000029000000002C99
:100210001E3420212224342627252E362D37382738
:100220001E1F202122232425263333362E37381F44
:100230000405060708090A0B0C0D0E0F1011121306
:100240001415161718191A1B1C1D2F3130232D35A4
:100250000405060708090A0B0C0D0E0F10111213E6
:100260001415161718191A1B1C1D2F3130354C0088
:10027000000000000000000000000000000000007E
:100280000000007E0F00D4FFFFFFC7000000780AC7
:1002900003620065005600690000001403730065E6
:1002A000006E00640079007900650061006800005C
:1002B000000403090409023B00020100A0FA09043A
:1002C0000000010301010009211101000122400089
:1002D0000705810308000A0904010001030000006A
:1002E00009211101000122BC000705820320000A38
:1002F000120110010000000859535642010001028A
:10030000000105010902A10185020901A1000509F9
:100310001901290515002501950575018102950131
:10032000750381010501093009311581257F950289
:100330007508810609381581257F950175088106A4
:10034000050C0A38021581257F950175088106C0C4
:10035000C005010980A101850319012AB700150113
:1003600026B700950175108100C0050C0901A10197
:10037000850419012AA002150126A0029501751015
:100380008100C005010906A1018505050719E029BD
:10039000E715002501950875018102050719002957
:1003A000EF1500250195F075018102050819012955
:1003B00005950575019102950175039101C005012F
:1003C0000906A101050719E029E71500250195088F
:1003D000750181029501750881010507190029FF42
:1003E000150026FF009506750881000508190129EA
:1003F00005950575019102950175039101C01124C0
:100400001FBECFEFDAE0DEBFCDBF04B603FE27C0CC
:1004100080918C0290918D02A0918E02B0918F02FA
:100420008730904BA740B04BD1F410928C021092C1
:100430008D0210928E0210928F0214BE84B7877FB5
:1004400084BF0FB6F894A89580916000886180936E
:100450006000109260000FBEE0E0F8E3099511E043
:10046000A0E0B1E0EAE1F1E402C005900D92A43809
:10047000B107D9F722E0A4E8B1E001C01D92AC3881
:10048000B207E1F70E94A81A0C9455200C940000C2
:1004900060E070E0CB010E944D140C945914FB01F4
:1004A00089329D4539F48281882321F08CEA90E0DD
:1004B0000E94620381E0089581E008950C944F0248
:1004C00008950C9460021F93CF93DF9300D000D067
:1004D0000F92CDB7DEB749835A836B8330919C016D
:1004E00089819A8131111DC06623B9F02223A9F0B8
:1004F0000E94D012182F682F89819A810E947A1247
:1005000069817A81812F0F900F900F900F900F903B
:10051000DF91CF911F910C94CE030E94A712182F48
:10052000EFCF0E94D01269817A81EDCFFC01262F96
:10053000408151816281738184810C946302CF93E5
:10054000DF93D82FC92F60E00E9496026D2F7C2F79
:10055000DF91CF910C946102FF920F931F93CF9381
:10056000DF93E82FF0E0E151FE4FF490C82FC695DD
:10057000C695C695D0E0FE01E158FD4F0491877005
:1005800010E0082E02C0159507950A94E2F7017055
:100590001127C159DD4FFE01C491D0E002C0D595AD
:1005A000C7958A95E2F7C170DD270115110519F08D
:1005B00081EE0E94DE09209719F086EE0E94DE0986
:1005C0008F2D0E945A0ACD2B19F086EE0E942B0A1D
:1005D000012B41F081EEDF91CF911F910F91FF90A0
:1005E0000C942B0ADF91CF911F910F91FF900895EA
:1005F000EF92FF920F931F93CF93DF938C01F62E10
:100600008AE0E82EF8018491882309F454C08130EF
:1006100009F04DC0E8012196FE018491813091F4EA
:100620002196FE0184910E945A0A8E010F5F1F4F8E
:100630008F2D815038F3EFE9FFE03197F1F700C0DB
:100640000000F7CF823039F4E8012296FE01849150
:100650000E94DE09EACF833039F4E8012296FE01D8
:1006600084910E942B0AE1CF8430F9F6E8012296AA
:10067000FE01249190E080E0FE0131962053330B7F
:100680002A30310548F0019780F2EFE9FFE0319719
:10069000F1F700C00000F7CFE89EA001E99E500DE1
:1006A0001124C901840F951F2491EF01E5CF0E9409
:1006B000AC02E801BACFDF91CF911F910F91FF906B
:1006C000EF90089560E00C94F8020E941F148111CD
:1006D00002C00E94BC140C94D9050C94DC0508954A
:1006E0000E94270D0E946F032FEF84E39CE02150AE
:1006F00080409040E1F700C000000C9446160F9334
:100700001F93CF93DF93EC0161E00E9496028C016E
:10071000BE010E945E02882329F1BE01C8010E9429
:100720003F078823F9F0BE01C8010E94940788237F
:10073000C9F0BE01C8010E946708882399F08A8128
:10074000882339F001158CE5180751F00F3D1C4541
:1007500079F0CE01DF91CF911F910F910C945C0243
:100760000E94700380E0DF91CF911F910F91089557
:100770000E94BC14F7CF08950C94BB0381E0089548
:100780000C94BE03CF93C82F0E94BC038C2FCF9133
:100790000C94C00390E080E008950895E72FF0E006
:1007A0009AE0899FE00DF11D112483E0EE0FFF1FF9
:1007B0008A95E1F7E60FF11DEE0FFF1FE155FF4FA0
:1007C000859194910895FC01EE0FFF1FE157FD4FB5
:1007D000859194910895CF93DF930E94CE030E9458
:1007E000FD04EC01811520E5920708F04BC081154E
:1007F00030E4930708F0B2C0803E910518F5803CC4
:10080000910508F09FC0883A910570F4853A9105EA
:1008100008F095C08130910529F10497813A91053E
:1008200008F1D0E0C0E01EC08F3B9105D1F3C85A5B
:10083000D0E0CC0FDD1FCB5EDE4F0990D881C02DFC
:10084000D46410C0811540E2940780F48F3F910575
:1008500009F040F4883E910528F0805F9109D06549
:100860004097F8F6CE01DF91CF910895C11580E34E
:10087000D80708F46DC0CE019927D3FD6CC0EC01F8
:10088000D06CF0CFC11595E5D90760F5C11524E509
:10089000D20708F094C0C11533E5D30778F4C11529
:1008A00042E5D40708F07AC0C11581E5D80708F4FD
:1008B00058C0DC2FCC27C16FD06AD4CFCE01837053
:1008C000992721E030E002C0220F331F8A95E2F71A
:1008D000C695C69590E2C99FE0011124C22BD32B87
:1008E000DA68C0CFC1152AE5D207B0F4C11539E5E1
:1008F000D30708F074C0C11546E5D40708F464C0F6
:10090000CE0198558F3F910511F008F08ACFDC2F6A
:10091000CC27C06FD06AA6CFCE01905681159042E9
:1009200008F07FCF8D2F8F710E94950590E0982F52
:10093000882788279F719C012C2BE9014EC0A49722
:10094000D06490CF805C91090E94E303EC018ACFD0
:10095000CE019F70F9CFEC01D86C84CFDF70D06AE4
:1009600081CFCE0174E0969587957A95E1F78370F3
:100970002C2F26952695237040E2249F9001112468
:10098000382B8C2F8370C1E0D0E002C0CC0FDD1F6C
:100990008A95E2F7C22BD32BDC6864CFCE0183703B
:1009A000992721E030E002C0220F331F8A95E2F739
:1009B000C695C69580E2C89FE0011124EBCFDC2FDD
:1009C000CC27C46FD06A4ECF8C2F0E949505C82FBC
:1009D000D0E0DC2FCC27CC27DF71D06243CF8C2F27
:1009E0008F700E94950534E0D695C7953A95E1F74A
:1009F000CF70DC2FC82FD06935CF803E910599F19B
:100A0000C8F48133910509F476C048F48932910520
:100A100009F46AC08A32910509F474C008958933D3
:100A20009105D1F082389105B9F08533910509F42B
:100A300054C00895843E910599F138F4823E9105A1
:100A4000F9F0833E910509F10895863E910599F1EB
:100A5000873E9105B9F1089520917D022370A1F0A0
:100A600080EE90E0089520917D0220FD52C03091EB
:100A70007E0230FF09C024FF4FC090E080E004C038
:100A800020917D0222FDF7CF089520917D0222FD65
:100A900046C030917E0230FDE3CF24FFF5CFEDCF8D
:100AA00020917E0221FFF0CF80917D0284FDE5CF71
:100AB00087EE90E0089520917D0223FFE5CF24FD8D
:100AC000DCCFF6CF20917D0223FD2CC030917E0239
:100AD00031FFE3CF84EE90E0089520917D0225FF61
:100AE000D3CF89E290E0089520917D0225FFCCCFFD
:100AF00085E390E0089520917D0226FFC5CF8AE22C
:100B000090E0089520917D0226FFBECF81E390E022
:100B1000089589E390E0089583EE90E0089582EED1
:100B200090E0089586EE90E0089590917D0292FF06
:100B300006C0282F28712830F9F4877F846093FF3E
:100B400006C0282F28712831F1F4877E8461209116
:100B50007E0220FF06C0382F38713830D9F4877FE5
:100B6000816021FF06C0282F28712831D1F4877EAB
:100B7000816194FD877E0895282F24712430F9F631
:100B80008B7F8860DCCF282F2471243101F78B7E86
:100B90008861DDCF382F3171313019F78E7F886051
:100BA000E0CF282F2171213121F78E7E8861E1CF9E
:100BB00008950C94D80508950C94DB05E82FF0E017
:100BC000E159FD4F80810895089580EA8A95F1F7F3
:100BD0000895F894E82FE295EF70F0E041A18F704E
:100BE00021E030E0B90102C0660F771F8A95E2F775
:100BF000CB01962F9095942391A392A1892B82A348
:100C000078940895CF93DF93CBE4D1E089910E944B
:100C1000E90581E0C535D807C9F7C3E4D1E089917A
:100C20000E94E90581E0CB34D807C9F7E5E6F2E098
:100C3000AFE6B2E011921D9282E0EF36F807D1F7ED
:100C40008AE00E949C06DF91CF910C946503CF92BD
:100C5000DF92EF92FF920F931F93CF93DF93CBE43A
:100C6000D1E005E612E0D12CEE24E394F12C899139
:100C7000F894E82FE295EF70F0E021A18F70A701C2
:100C800002C0440F551F8A95E2F7CA01922F982B94
:100C900091A392A18095892382A378940E94E5056F
:100CA000E3E4F1E030E020E0C12C4191A42FA295D3
:100CB000AF70B0E090968C9190E04F7002C0959527
:100CC00087954A95E2F780FD33C08E2D022E01C034
:100CD000880F0A94EAF7C82A2F5F3F4F2830310562
:100CE00021F7FE01319780810E94E905F80180819A
:100CF000C81601F1C08281E0D82A0F5F1F4FF1E0D2
:100D0000C535DF0709F0B3CF2D2D4AE06FE672E05D
:100D100085E692E00E949D060E946D038D2DDF9175
:100D2000CF911F910F91FF90EF90DF90CF9008959A
:100D300080E0D1CF80E0E0CF0895FF920F931F9322
:100D4000CF93DF93F82E092F162FD72FC42F2223EE
:100D500049F081E0809386010E94071690938501F7
:100D600080938401809186018823A1F08091840181
:100D7000909185010E941316069760F0EF2DF02FD9
:100D8000A12FBD2FCE0FDF2FD11DEC17FD0741F492
:100D900010928601DF91CF911F910F91FF900895DE
:100DA00081918D93F2CF0F931F93CF93DF93C42F35
:100DB000D22FFC0182818823C9F0409389010E94CF
:100DC0000716909388018093870180E28C0F88300A
:100DD00008F050C0C77081E001C0880FCA95EAF7DB
:100DE000DF91CF911F910F910C946D0A10918901A1
:100DF000141335C080918701909188010E941316C9
:100E0000883C910560F5C0E2CD0F1D17B9F080E276
:100E1000810F883040F4177081E001C0880F1A9567
:100E2000EAF70E94740AC83048F481E09D2F977059
:100E300001C0880F9A95EAF70E946D0A802F0E94E0
:100E40005A0AC830B8F4D77081E001C0880FDA952B
:100E5000EAF7DF91CF911F910F910C94740A80E211
:100E60008C0F883038F4C77081E001C0880FCA95B4
:100E7000EAF7EFCFDF91CF911F910F9108950F9374
:100E80009C01CB01243F4CE53407A1F190F4293DAE
:100E9000FCE53F0749F12A3D4CE53407E9F1283DDF
:100EA0003C45C1F0FC0182818823E1F11092890167
:100EB00019C0263FFCE53F0719F1273F4CE53407F1
:100EC00029F1253F3C4571F707E225EE44EE65EF39
:100ED0007CE505C006E221EE41EE68ED7CE50E946E
:100EE000D30680E00F91089507E225EE45EE69ED07
:100EF0007CE5F5CF06E221EE40EE64EF7CE5EFCF36
:100F000006E221EE42EE66EF7CE5E9CF07E225EE50
:100F100046EE67EF7CE5E3CF08E221E045EE6AEDBF
:100F20007CE5DDCF81E0DECFCF93DF93EC01FB01E9
:100F30008281882309F4C9C0C631FCE5DF07E0F4EB
:100F4000C2309CE5D907F0F00E94321490937E02E3
:100F500080937D02C631ECE5DE0720F5C230FCE56A
:100F6000DF0798F480917D0290917E020E944014E8
:100F70000E94270D80E006C09E012B5F3C45293072
:100F8000310510F3DF91CF910895FE01E350FC4548
:100F900080917D028160E331F10588F4E95AFF4DCB
:100FA0000C94F91FCB5FDC45C930D105D8F6C65982
:100FB000DF4DFE010C94F91F80917D0282608093C9
:100FC0007D02D0CF80917D028460F9CF80917D0237
:100FD0008860F5CF80917E02816080937E02C2CFCF
:100FE00080917E028260F9CF80917D028061E7CF9F
:100FF00080917D028062E3CF80917D028064DFCFAB
:101000000E94270D80917D028068D9CF80917D025A
:101010008C60D5CF80917E028360DFCF80917D028E
:101020008E7FCDCF80917D028D7FC9CF80917D0253
:101030008B7FC5CF80917D02877FC1CF80917E025B
:101040008E7FCBCF80917E028D7FC7CF80917D0236
:101050008F7EB5CF80917D028F7DB1CF80917D0253
:101060008F7BADCF0E94270D80917D028F77A7CF18
:1010700080917D02837FA3CF80917E028C7FADCF54
:1010800080917D0282FB992790F921E0922790FBC5
:1010900082F990FB83F993CF80917E02982F9095EF
:1010A00091708E7F892B90FB81F997CF0E94270D3D
:1010B00090917D02892F97FB87F9805880CF81E03E
:1010C0000E94BE144FCF80E0FBCF81E05BCFCF9377
:1010D000DF93EB0186319C4511F50E946D139A81D7
:1010E000992399F08A7A91E009F490E090938A012B
:1010F000811109C089E20E9448130E94BC1380E05C
:10110000DF91CF91089585E3F6CF80918A01811117
:1011100004C089E20E944F13F0CF85E3FBCF81E04A
:10112000EFCF9093900180938F010895E0918F010C
:10113000F0919001309721F00190F081E02D099419
:1011400080E00895DC01E0918F01F09190013097EB
:1011500099F080911401882351F080917D0287FFDE
:1011600006C08C9111968C93119785E08C93028028
:10117000F381E02DCD0109940895DC01E0918F0108
:10118000F0919001309739F082E08C930480F581E2
:10119000E02DCD010994089520918D0130918E01AB
:1011A0002817390771F090938E0180938D01E0919B
:1011B0008F01F0919001309721F00680F781E02DAA
:1011C0000994089520918B0130918C0128173907DB
:1011D00071F090938C0180938B01E0918F01F091DD
:1011E0009001309721F00084F185E02D0994089555
:1011F00085B7806885BF85B7806885BF08950895E5
:1012000008950C94FF0808950C9403090E94F808AF
:101210000E9400090C94010981E008950C940C09C6
:10122000089508950E94FE150E9402060E94571616
:101230000C940409BF92CF92DF92EF92FF920F932A
:101240001F93CF93DF9300D000D00F92CDB7DEB7BE
:101250000E9410090E9411090E9427060E940E098F
:10126000882309F45DC082E9C82E81E0D82E10E001
:1012700000E0B02E802F0E94DE05F82EF601E190EE
:101280006F01E81609F446C08091340281FD0E9486
:10129000E4059E2D9F2580E0EE24E394292F2E2146
:1012A000A9F18983BA82FE2081E009F480E08B8372
:1012B0000E9407168160782F9D838C8349815A8113
:1012C0006B818D810E94B009F801EE56FE4F80813E
:1012D000E826E0820E9415180E94960890919101DC
:1012E000891779F10E949608809391010F900F90D1
:1012F0000F900F900F90DF91CF911F910F91FF9062
:10130000EF90DF90CF90BF900C94C2038F5FEE0CF4
:10131000883021F60F5F1F4F0A30110509F0A9CF61
:101320008FEF89838A831B820E9407168160782F42
:101330009D838C8349815A816B818D810E94B00984
:10134000C9CF0F900F900F900F900F90DF91CF911A
:101350001F910F91FF90EF90DF90CF90BF90089575
:10136000CF93DF93CDB7DEB72B970FB6F894DEBFE0
:101370000FBECDBF4F83588769877A878B871E82C0
:1013800085E0FE013796DE01119601900D928A9557
:10139000E1F749815A816B817C818D819E812B96F9
:1013A0000FB6F894DEBF0FBECDBFDF91CF910C9486
:1013B0008A0FFC01808191810C941213CF93C82F66
:1013C000882309F446C08CEF8C0F813AA0F46C2F6F
:1013D00080910001909101010E94D714882329F087
:1013E0008C2F0E944F130E94BC138C2F0E94481315
:1013F000CF910C94BC1380E28C0F883048F4C770F6
:1014000081E001C0880FCA95EAF70E947013F0CFFF
:101410008BE58C0F833038F42C2F2452330BC90109
:10142000CF910C94CC08E8E5EC0FE73150F4F0E0F4
:10143000EE0FFF1FEB5AFE4F80819181CF910C94EC
:10144000E208C03F30F08C2F0E941017CF910C940F
:10145000FB17CF910895882361F19CEF980F913A83
:1014600020F40E944F130C94BC1390E2980F983014
:1014700050F4877091E001C0990F8A95EAF7892F9F
:101480000E947613F0CF9BE5980F933020F490E004
:1014900080E00C94CC0898E5980F973120F490E008
:1014A00080E00C94E208803F20F00E9478170C94B2
:1014B000FB170895CF93C82F0E94DE09C93349F462
:1014C0002FEF87EE93E0215080409040E1F700C07D
:1014D00000008C2FCF910C942B0A882321F00E94BE
:1014E00070130C94BC130895882321F00E94761386
:1014F0000C94BC130895AF92BF92CF92DF92EF92FB
:10150000FF920F931F93CF93DF9300D000D00F92E1
:10151000CDB7DEB76C016D837983FC01058102953F
:101520000F70128111110E948F130E946613E82E12
:10153000882391F01123D1F08981807F803421F0BC
:101540008D81805E883090F082E00E9407140E94B6
:10155000661391E0E82EE926A980A2949FE0A922D3
:10156000B12CF501ED58FF4D0C94F91FE12CF4CF8F
:1015700009810F70F981F07F11F00295007F11232E
:10158000B1F0002361F08D81805E883018F02D81EC
:10159000211109C0802F0E9470130E94BC138D81FD
:1015A0000E94DE0915C0802F0E948113F6CF8D8125
:1015B0000E942B0A002361F08D81805E883018F034
:1015C0004D81411133C0802F0E9476130E94BC13BD
:1015D00058E0A51AB10864E0A616B10420F40E94F0
:1015E00096080E94C203EE2009F4CCC10E94621347
:1015F00080FDC8C1F60112820E945C130E946A112C
:10160000C6010E94E90C0E945C130F900F900F908E
:101610000F900F90DF91CF911F910F91FF90EF905E
:10162000DF90CF90BF90AF900C949B11802F0E94C1
:101630008713CCCF59815F70F52E6981607F60324E
:1016400019F0F29480EFF8227D81772369F07130F0
:1016500049F1112391F1002351F1F601858180FFB9
:101660009ECF8F70858323C0112381F0011106C0A6
:101670000E94A3138F290E946D0AAACF0130C1F7DF
:101680000E94A3138F290E94A913A2CF011106C0A3
:101690000E94B2138F2D0E94740A9ACF013009F470
:1016A00097CFF6CF112329F0063008F091CF8F2D78
:1016B000E2CF053008F08CCFEDCF002359F3FD8148
:1016C000F93349F42FEF47EE53E0215040405040AA
:1016D000E1F700C000008D810E942B0A79CF89813B
:1016E00086958695837069F0813009F071CF8D8180
:1016F00099819370111102C090E080E00E94E2088D
:1017000067CF8D8199819370111102C090E080E0C4
:101710000E94CC085DCF8D81112329F00E94101703
:101720000E94FB1755CF0E947817FACF89818370EA
:1017300009F050C011114CCF4D814295469547702C
:10174000440F440F8D818F7090E0B0E0A0E0042E34
:1017500004C0880F991FAA1FBB1F0A94D2F76D817E
:1017600000E010E0980164FF0FC00FE010E020E0FF
:1017700030E004C0000F111F221F331F4A95D2F71B
:1017800000951095209530957981769576957370B2
:101790007D83B901A801482B592B6A2B7B2B4983E8
:1017A0005A836B837C835D8169817A818B819C8183
:1017B000523051F0533059F0513019F00E94E0107E
:1017C00007CF0E94B81004CF0E94081101CF0E94D9
:1017D000B610FECE8695112311F089818170882381
:1017E00009F4F6CE4D81429546954770440F440F5B
:1017F0008D818F7090E0B0E0A0E0042E04C0880FCF
:10180000991FAA1FBB1F0A94D2F76D8100E010E058
:10181000980164FF0FC00FE010E020E030E004C04A
:10182000000F111F221F331F4A95D2F70095109504
:101830002095309579817695769573707D83B90181
:10184000A801482B592B6A2B7B2B49835A836B8326
:101850007C835D8169817A818B819C81523051F0DA
:10186000533059F0513019F00E942912B1CE0E9424
:101870000112AECE0E945112ABCE0E943411A8CEFE
:1018800069816F706983112329F0862F0E946A1184
:101890008D81F1CE8D810E94740A89810E949B11F5
:1018A00097CE7D81723FA1F160F4703FE1F0713F0E
:1018B00041F1112309F445C0011171CE89818F7165
:1018C00024C08D81833F49F1843F99F7112379F139
:1018D00099819F719983892F0E946A1163E08981A0
:1018E0000E94F21375CE112341F0053008F070CE3E
:1018F00089818F710E94D0116BCE063008F068CEBE
:10190000F7CF89818F71112349F20E946A1160CE4D
:1019100089818F711123C9F3C1CF112329F08981E6
:101920008F710E94451154CE0E94401151CE81E02A
:101930000E940714023008F44BCE82E00E94071484
:1019400047CE002361F0ED81E93309F0C4CEFFEF0B
:1019500027EE43E0F15020404040E1F7BACE8981C4
:101960008F719CCF49814F706D81C6010E94CA035F
:101970000E942A102DCE49814F706D81C6010E94B0
:10198000CD0326CE0F900F900F900F900F90DF9108
:10199000CF911F910F91FF90EF90DF90CF90BF906C
:1019A000AF9008950F931F93CF93DF93EC0168815D
:1019B00079818A810E941E138C010E9479120E94F3
:1019C000B510B801CE01DF91CF911F910F910C940A
:1019D0007B0ACF93DF93EC018B819C81892B29F0CB
:1019E0008881998189238F3F59F4DF91CF910895A0
:1019F000CE010E94D20CCE01DF91CF910C949F02B8
:101A0000CE010E947F038111F3CF0E9466138823C9
:101A100061F38A81882349F382E0DF91CF910C94AE
:101A200007140E948F130E94A0130E94BC130E94EF
:101A300025190E94FB1790E080E00E94CC0890E0FE
:101A400080E00C94E2080E9456130C94110D0E9441
:101A50007E130C94230D282F892F82958F70903C34
:101A600080F48A30B0F4843020F4823090F480E046
:101A700008958630E1F781E0283E88F0213FB9F7EC
:101A80000EC08C3011F08F3091F793FB882780F9CE
:101A9000089581E0203F39F018F4283E40F708957A
:101AA000243F29F7FCCF08950E9412130C942B0DAC
:101AB000CF93DF9300D000D00F92CDB7DEB70F9059
:101AC0000F900F900F900F90DF91CF910895CF93CB
:101AD000DF9300D000D000D0CDB7DEB726960FB68A
:101AE000F894DEBF0FBECDBFDF91CF9108951F9355
:101AF000CF93DF93E0919D0116E080919E018E13BC
:101B000004C0DF91CF911F910895CE2FD0E01E9F8A
:101B1000F0011124E156FE4F4081518162817381B1
:101B2000848195810E94670DFE013196E770E5CFB3
:101B30004091CF015091D0016091D1017091D201BB
:101B40008091D3019091D4010C94670D1F93CF9392
:101B5000DF938091D401807FA9F48091D101882303
:101B600089F080919D01C0919E016091CF0170919B
:101B7000D001A091D201B091D301D62FD72316E086
:101B8000C81304C0DF91CF911F91089590E0109782
:101B900011F0DF3F19F401968770F2CF189F900182
:101BA000199F300D1124F901E156FE4F4181471371
:101BB000F2CF40814613EFCF42814111ECCF4381F8
:101BC00054814A1B5B0B483C510528F78091D40196
:101BD0008F7080618093D401F901EC55FE4F8081B4
:101BE0008F70806180838FEC91E00E94E90CDF911F
:101BF000CF911F910C94770DAF92BF92CF92DF924D
:101C0000EF92FF920F931F93CF93DF93CDB7DEB781
:101C10002B970FB6F894DEBF0FBECDBF8C0185E0C9
:101C2000F801DE01179601900D928A95E1F7F8010F
:101C300040815181E2808FECC82E81E0D82E6091E6
:101C4000D2017091D3016115710509F444C19091DD
:101C5000CF012091D001822F89238F3F09F43BC10E
:101C6000A380B480F090D101F501E61BF70BFF20B3
:101C700009F4E0C08091D401382F307FE83CF105B1
:101C800008F0B2C0311179C0FE2C251323C0941383
:101C900021C0E1101FC08F7080618093D4010E9429
:101CA000980DC6010E94E90C8091D401F80185834A
:101CB0008F2D2B960FB6F894DEBF0FBECDBFDF91F0
:101CC000CF911F910F91FF90EF90DF90CF90BF9039
:101CD000AF900895AB2829F0842F85238F3F09F01A
:101CE00016C180E0F82FF170DF2EE0919D01209168
:101CF0009E0136E080FD1CC0EE20D1F28091D4011F
:101D000081608093D401F12CD3CF8E2F90E03E9F41
:101D1000F0011124E156FE4F6181651306C0608118
:101D2000641303C06281E612E7CFFC013196E770CD
:101D3000E213EBCF4F8358878F8198850E9412134F
:101D4000292F22952F70903260F0225F2F70223061
:101D500078F49F7051F0F8019581907F31F4D12C87
:101D60000AC09F7011F08823D1F3805E8830B8F3E9
:101D7000C8010E94E90CFD2C9BCF251306C09413CB
:101D800004C0F801EE2009F470C04F8358878F819A
:101D900098850E94540D882319F1EE2009F1809155
:101DA000D401803270F02091CF013091D0013A837C
:101DB00029831B82BD82AC828E83CE0101960E9454
:101DC000E90C86E0F801AFECB1E001900D928A9544
:101DD000E1F70E94A60D0E94980DFF24F39468CFAE
:101DE000C8010E94E90CF9CF311113C07A2DBB86CE
:101DF000AA866E2D8B850E94580D8FEC91E00E9473
:101E0000E90C86E0F60111928A95E9F70E94980D97
:101E10007ACF2513BACF9413B8CFE110B6CFF8011B
:101E20008583C8010E94E90C86E0F60111928A952B
:101E3000E9F73ECFE83CF10508F040C0FE2CEE206B
:101E400079F225132AC0941328C08091D40180FD13
:101E50001BC0982F907FC1F0F8018583903F31F02F
:101E6000982F907F905F8F70892B8583C8010E9487
:101E7000E90C86E0F801AFECB1E001900D928A9593
:101E8000E1F70E94980D14CF86E0F801AFECB1E0C5
:101E900001900D928A95E1F70BCF4F8358878F8180
:101EA00098850E94540D81118CCF8091D40181605E
:101EB0008093D401C8010E94E90CFACE7A2DBB862A
:101EC000AA866E2D8B850E94580D86E0F601119230
:101ED0008A95E9F7D6CFEE2009F482CF4F83588751
:101EE0008F8198850E94540DF82E882309F478CFAD
:101EF00086E0F801AFECB1E001900D928A95E1F730
:101F00008FEC91E00E94D9090E94A60DBACF81E022
:101F10008E25E8CE1F93CF93DF93CDB7DEB72C97F6
:101F20000FB6F894DEBF0FBECDBF4F8358876987C9
:101F30007A878B879C87CE0107960E94FC0D8823A9
:101F400069F08A859B85892B39F04F815885842FCC
:101F500085238F3F09F077C016E065C086E0FE015B
:101F60003796DE01119601900D928A95E1F76A8508
:101F70007B856115710581F35F814885842F8523F9
:101F80008F3F51F320919E0130E0C9010196877087
:101F90009927E0919D01E817190671F40E94270D19
:101FA00010929E0110929D0186E0EFECF1E0DF01BE
:101FB0001D928A95E9F7D0CF59834A837D836C833C
:101FC00096E0929FD001939FB00D1124A156BE4F71
:101FD000FE01319601900D929A95E1F780939E0152
:101FE0000E94770DB9CF819FC001112481569E4F69
:101FF0000E94FC0D8823E9F0E0919D011E9FF001F5
:102000001124E156FE4F40815181628173818481A8
:1020100095810E94670D80919D0190E001968770E7
:10202000992780939D0180919D0190919E01891334
:10203000DACF2C960FB6F894DEBF0FBECDBFDF917E
:10204000CF911F91089569857A858B859C850E9423
:10205000670D82CFEF92FF920F931F93CF93DF9381
:102060008C01892B89F0F12CEE24E394E801219670
:10207000F8018491843709F457C0A0F4823009F440
:102080003EC048F48130D1F0DF91CF911F910F9184
:10209000FF90EF9008959CEF980F9037A8F70E945B
:1020A000DE090AC0853709F44CC09CE7980F9037C9
:1020B00058F78F770E942B0A8E0116C00E5F1F4FB4
:1020C000FE01849190E2980F983060F48770FE2DA5
:1020D00001C0FF0F8A95EAF78F2F0E9492130E948A
:1020E000BC1302C00E94DE098F2D815008F4BECFC0
:1020F000EFE9FFE03197F1F700C00000F6CF0E5F87
:102100001F4FFE01849190E2980F983050F4877031
:10211000FE2D01C0FF0F8A95EAF78F2F0E949813BA
:10212000DECF0E942B0AE0CF0E5F1F4FFE01C4914D
:10213000C150D0F28FE99FE00197F1F700C0000095
:10214000F7CF0E5F1F4FFE01F490CECF08950C9491
:10215000A6100E94A71060930B0270930C0280934C
:102160000D0290930E020C94110D08950C94A91079
:10217000CF93DF9300D000D0CDB7DEB769837A83E9
:102180008B839C8380910B0290910C02A0910D0295
:10219000B0910E0229813A814B815C81282B392B29
:1021A0004A2B5B2B29833A834B835C83CA01B90199
:1021B0000F900F900F900F90DF91CF910C94A9107A
:1021C000CF93DF9300D000D0CDB7DEB769837A8399
:1021D0008B839C8380910B0290910C02A0910D0245
:1021E000B0910E0229813A814B815C8128233923E9
:1021F0004A235B2329833A834B835C83CA01B90159
:102200000F900F900F900F90DF91CF910C94A91029
:10221000CF93DF9300D000D0CDB7DEB769837A8348
:102220008B839C8380910B0290910C02A0910D02F4
:10223000B0910E0229813A814B815C812827392790
:102240004A275B2729833A834B835C83CA01B90100
:102250000F900F900F900F90DF91CF910C94A910D9
:102260000C94A6100C9430110E9432116093070256
:10227000709308028093090290930A020C94110D46
:1022800060E070E0CB010C9434110F931F93CF9357
:10229000DF9300D000D0CDB7DEB741E050E060E082
:1022A00070E08A019B0104C0000F111F221F331F21
:1022B0008A95D2F709831A832B833C83C901B8011D
:1022C0000F900F900F900F90DF91CF911F910F9172
:1022D0000C9434110F931F93CF93DF9300D000D051
:1022E000CDB7DEB741E050E060E070E004C0440FDD
:1022F000551F661F771F8A95D2F78091070290912C
:102300000802A0910902B0910A028A019B01082BE0
:10231000192B2A2B3B2B09831A832B833C83C9015E
:10232000B8010F900F900F900F90DF91CF911F91F8
:102330000F910C9434110F931F93CF93DF9300D020
:1023400000D0CDB7DEB741E050E060E070E004C0FF
:10235000440F551F661F771F8A95D2F740955095F9
:10236000609570958091070290910802A0910902F2
:10237000B0910A028A019B01082319232A233B23D7
:1023800009831A832B833C83C901B8010F900F90F6
:102390000F900F90DF91CF911F910F910C943411FA
:1023A0000F931F93CF93DF9300D000D0CDB7DEB74C
:1023B00041E050E060E070E004C0440F551F661F2C
:1023C000771F8A95D2F78091070290910802A09119
:1023D0000902B0910A028A019B01082719272A27BE
:1023E0003B2709831A832B833C83C901B8010F90D3
:1023F0000F900F900F90DF91CF911F910F910C9440
:102400003411CF93DF9300D000D0CDB7DEB769830E
:102410007A838B839C838091070290910802A0911C
:102420000902B0910A0229813A814B815C81282BF3
:10243000392B4A2B5B2B29833A834B835C83CA015C
:10244000B9010F900F900F900F90DF91CF910C94E6
:102450003411CF93DF9300D000D0CDB7DEB76983BE
:102460007A838B839C838091070290910802A091CC
:102470000902B0910A0229813A814B815C812823AB
:1024800039234A235B2329833A834B835C83CA0124
:10249000B9010F900F900F900F90DF91CF910C9496
:1024A0003411CF93DF9300D000D0CDB7DEB769836E
:1024B0007A838B839C838091070290910802A0917C
:1024C0000902B0910A0229813A814B815C81282757
:1024D00039274A275B2729833A834B835C83CA01C8
:1024E000B9010F900F900F900F90DF91CF910C9446
:1024F00034110895990F990F990FE92FE80F8770FC
:1025000041E001C0440F8A95EAF7E695E695E69525
:1025100085E0E89FF0011124EB52FE4F30E020E00F
:1025200070E05191DF011197CB01022E02C0969508
:1025300087950A94E2F78170819585278423852702
:102540008C932F5F3F4F2530310559F70895E92FC0
:10255000EE0FEE0FEE0FE80F982F9770E695E695C9
:10256000E69585E0E89FF0011124EB52FE4F50E024
:1025700040E080E0219130E0092E02C03695279599
:102580000A94E2F721703327042E01C0220F0A9427
:10259000EAF7822B4F5F5F4F4530510559F7089599
:1025A000BF92CF92DF92EF92FF920F931F93CF9340
:1025B000DF938C01C0900702D0900802E0900902DE
:1025C000F0900A0280910B0290910C02A0910D02F2
:1025D000B0910E02C82AD92AEA2AFB2ACFE1D0E01C
:1025E000BC2ED701C6010C2E04C0B695A7959795B1
:1025F00087950A94D2F780FD0EC0219788F7B12CF9
:102600008B2DDF91CF911F910F91FF90EF90DF9075
:10261000CF90BF900895B8018C2F0E94EB030197D3
:1026200061F3EECFCF93DF93D82FC92F0E94D01242
:102630006D2F7C2FDF91CF910C94EB031F93CF93E1
:10264000DF93162FD72F90919C01992339F0862F75
:10265000972FDF91CF911F910C941213882391F043
:10266000862F972F0E94D012C82F682F812F9D2F61
:102670000E947A12612F7D2F8C2FDF91CF911F91B5
:102680000C94EB03862F972F0E94A712C82FF2CF2E
:10269000682F80910001909101010C945B15682FC7
:1026A00080910001909101010C94661580910001C8
:1026B000909101010C94711580910F02859585957B
:1026C0008595089580910F028770089590910F026B
:1026D000977081E009F480E00895809133020895B5
:1026E00090913302982B909333020895982F9095F0
:1026F000809133028923809333020895109233022C
:10270000089590913202982B909332020895982F59
:10271000909580913202892380933202089510921D
:102720003202089590913102982B909331020895CE
:10273000982F9095809131028923809331020895DA
:1027400010923102089580911002089508950C941A
:10275000A61390911002981721F0809310020C9408
:10276000A713089580911002882329F01092100277
:1027700080E00C94A7130895E0910001F09101010D
:10278000809133028083E0910001F091010180810A
:1027900090913202892B8083E0910001F091010138
:1027A000808190913102892B80839091100299232E
:1027B00081F0E0910001F09101018081892B8083FB
:1027C00080910001909101010E94C31481110E9427
:1027D000B21380910001909101010C94A208089518
:1027E0000C94EF1398E0899F90011124622B609361
:1027F0000F020E946A1180910F028595859585953B
:102800000C94F01310920F0280E00C94F01390914E
:102810000F028095892380930F02282F277071F46F
:10282000282F082E000C330B9217130639F08595CC
:10283000859585950E949B110C940214089590E053
:1028400080E00E941B209C0181E02C3E3E4F09F05D
:1028500080E0089582E090E00C94132083E090E003
:102860000C941320CF9384E090E00E941320C82F93
:1028700081E290E00E941320982F8C2FCF91089531
:10288000CF93682FC92F84E090E00E9421206C2F05
:1028900081E290E0CF910C942120AB01BC018FE04C
:1028A00090E00C943320AB01BC0183E190E00C94E8
:1028B000332060E070E0CB010C9453146CEE7EEF9B
:1028C00090E080E00E943F2060E082E090E00E9483
:1028D000212060E083E090E00E94212010920B0212
:1028E00010920C0210920D0210920E0260E084E031
:1028F00090E00E94212060E081E290E00E9421208F
:1029000060E085E090E00E94212060E086E090E0B9
:102910000E9421206FEF87E090E00E94212040E09C
:1029200050E0BA0188E090E00E94332060E08DE042
:1029300090E00E94212040E050E0BA0188E190E060
:102940000E94332060E087E190E00E94212040E077
:1029500050E0BA018CE190E00E94332060E080E218
:1029600090E00E94212040E050E0BA0188E190E030
:102970000E9433200C9448020C945E14682F8EE061
:1029800090E00C942120FC01329680911401882360
:1029900021F080917D029EE187FF96E080E09150DA
:1029A00008F4089521912223D1F38F5FF8CF9C0181
:1029B000662301F1809114018823F1F080917D025A
:1029C00087FF1AC0462F469546954695603F90F47E
:1029D000677081E090E002C0880F991F6A95E2F766
:1029E000240F311DF901228130E02823392381E0B1
:1029F000232B71F480E00895F9013296285F3F4F50
:102A00008191861721F0E217F307D1F7F3CF81E028
:102A100008959C01FC0132968FEF90E0419146179A
:102A200051F08F3F19F4411101C0892F9F5F9630FB
:102A3000A9F78F3F09F40895280F311D87FD3A95B6
:102A4000F901628308959C01FC013296285F3F4F93
:102A50008191861303C0DF0111971C92E217F307DF
:102A6000B9F70895E62FE695E695E695603F68F498
:102A7000E80FF92FF11D677021E030E001C0220F4F
:102A80006A95EAF78281822B82830895E62FE69584
:102A9000E695E695603F70F4E80FF92FF11D677039
:102AA00081E090E001C0880F6A95EAF780959281F5
:102AB00089238283089520911401222329F02091F3
:102AC0007D0227FD0C9432150C94091520911401F8
:102AD000222329F020917D0227FD0C9446150C94A9
:102AE0002315FC01329680911401882351F08091C6
:102AF0007D0287FF06C08EE1DF011D928A95E9F70E
:102B0000089586E0F9CF089508950C9484150E94E5
:102B1000851580918302843049F11092350288E155
:102B200090E020E40FB6F894A895809360000FBE63
:102B30002093600080E00E94C2030E94851583B745
:102B4000817F846083BF83B7816083BF78948895D9
:102B500083B78E7F83BF0FB6F894A89580916000ED
:102B6000886180936000109260000FBE0895089500
:102B7000CF930E9483150E9427060E94B715C0E0DC
:102B80008C2F0E94DE05811105C0CF5FCA30C1F7CE
:102B9000CF91089581E0FCCF08950C94CC150E944C
:102BA000270D0E9496080E94C2030C94CD151F9217
:102BB0001FB61F9211248F939F93AF93BF93809161
:102BC0003502811113C08091790290917A02A0910F
:102BD0007B02B0917C024196A11DB11D80937902C8
:102BE00090937A02A0937B02B0937C02BF91AF9145
:102BF0009F918F911F901FBE1F90189582E084BDFA
:102C000093E095BD9AEF97BD80936E0008952FB71E
:102C1000F8948091790290917A02A0917B02B09110
:102C20007C022FBF08959C014FB7F89480917902E0
:102C300090917A02A0917B02B0917C024FBF821BDF
:102C4000930B089578941F921FB61F9211248F93AF
:102C50009F93AF93BF938091790290917A02A09154
:102C60007B02B0917C020196A11DB11D8093790277
:102C700090937A02A0937B02B0937C02BF91AF91B4
:102C80009F918F911F901FBE1F90189587E797E720
:102C9000909301088093000888E19AE00FB6F894B9
:102CA000A895809360000FBE90936000FFCFCF93F4
:102CB000DF9300D000D0CDB7DEB70E941F14811182
:102CC00002C00E94BC140E942A14809334020E9405
:102CD000321490937E0280937D020E942E14282F3E
:102CE00030E050E040E0CA01B9010E94B610809186
:102CF000070290910802A0910902B0910A0289830B
:102D00009A83AB83BC83BC01CD010F900F900F90D1
:102D10000F90DF91CF910C94321180913C0280FF93
:102D200012C06091070185E0689FB001112475957C
:102D300067957595679560387105A8F561157105FA
:102D4000A1F1862F089581FF09C06091070185E0F8
:102D5000689FB001112475956795EDCF60910701CB
:102D600082FD0AC080913B028823D1F09091060138
:102D700060910701891728F085E0689FB001112450
:102D8000DACF869FB001112485E0869F9001879F4E
:102D9000300D1124692F70E0C9010E94E51FCBCFCF
:102DA00065E070E0CECF8FE7089581E008958091CF
:102DB0003C0280FF0CC06091030170E0759567953F
:102DC000759567956115710549F1862F089581FF05
:102DD00006C06091030170E075956795F3CF60912F
:102DE000030182FD0BC090913A029923A1F06091FA
:102DF000020180910301961738F0682F70E0603867
:102E0000710500F38FE70895899FC001112470E0D8
:102E10000E94E51FF4CF61E070E0D7CF81E0089514
:102E2000803F31F40E948D16819580934002089571
:102E3000813F19F40E948D16F8CF823F31F40E9431
:102E40008D16819580933F020895833F19F40E9467
:102E50008D16F8CF893F29F40E94D716809341023E
:102E600008958A3F21F40E94D7168195F7CF8B3FB2
:102E700031F40E94D71681958093420208958C3FC9
:102E800019F40E94D716F8CF843F31F480913E02A6
:102E9000816080933E020895853F21F480913E0237
:102EA0008260F7CF863F21F480913E028460F1CFAB
:102EB000873F21F480913E028860EBCF883F21F468
:102EC00080913E028061E5CF8D3F31F480913C02DC
:102ED000816080933C0208958E3F21F480913C02F2
:102EE0008260F7CF8F3FB9F780913C028460F1CFC9
:102EF00090913F02803F59F48091400287FF0DC0BE
:102F00001092400291110BC010923B0208C0813F09
:102F100081F48091400218169CF3992381F08091EE
:102F2000410290914202892B09F064C010923A024A
:102F30000895823F49F497FFF0CF10923F028091AD
:102F400040028111ECCFE0CF833F19F41916ACF3A6
:102F5000E4CF20914102893F29F41216F4F6109231
:102F60004102DBCF8A3F19F427FFD7CFF8CF20915A
:102F700042028B3F29F427FFD0CF10924202CDCFDF
:102F80008C3F19F41216CCF3C8CF843F31F48091F2
:102F90003E028E7F80933E02C0CF853F21F4809118
:102FA0003E028D7FF7CF863F21F480913E028B7FDA
:102FB000F1CF873F21F480913E02877FEBCF883F9E
:102FC00021F480913E028F7EE5CF8D3F31F48091D8
:102FD0003C028E7F80933C02A0CF8E3F21F48091F3
:102FE0003C028D7FF7CF8F3F09F097CF80913C0255
:102FF0008B7FF0CF08950E94071620913F023091F9
:103000004002232B21F080933802909339022091C3
:10301000410230914202232B21F08093360290939B
:1030200037028DE392E00C94BD08EF92FF920F936C
:103030001F93CF93DF9300D000D000D0CDB7DEB781
:1030400086E0EDE3F2E0DE01119601900D928A95A3
:10305000E1F7E0903F02F0904002009141021091B0
:10306000420210923F0210924002109241021092CE
:1030700042028F2D8E2991F0809138029091390271
:103080000E9413169C0180913B02882309F443C0DF
:10309000909108019217130608F44BC0802F812BE2
:1030A00091F080913602909137020E9413169C0194
:1030B00080913A02882309F47BC090910401921711
:1030C000130608F483C080913F0290914002892B3F
:1030D00090914102892B90914202892B11F00E941C
:1030E000FB17EB82FC820D831E8386E0FE01319686
:1030F000ADE3B2E001900D928A95E1F726960FB606
:10310000F894DEBF0FBECDBFDF91CF911F910F911D
:10311000FF90EF900895409109019AE0499FA00126
:1031200011244217530708F0B9CF8F5F80933B02F9
:1031300002C08F3FD1F7EE2059F00E948D169FEF0D
:103140001E140CF491E0899F802D112480933F027E
:10315000FF2059F00E948D169FEF1F140CF491E090
:10316000899F802D11248093400230913F023323A8
:1031700009F494CF20914002222309F48FCF45EB2C
:103180003403C0011124992359F090933F0245EB79
:10319000240390011124332339F0309340027ECF71
:1031A00081E080933F02F3CF81E08093400276CFAD
:1031B000409105019AE0499FA0011124421753074D
:1031C00008F081CF8F5F80933A0202C08F3FD1F722
:1031D000002359F00E94D7169FEF10160CF491E0CF
:1031E000899F802D112480934102112359F00E9460
:1031F000D7169FEF11160CF491E0899F802D1124B2
:103200008093420230914102332309F45CCF209134
:103210004202222309F457CF45EB3403C0011124A5
:10322000992359F09093410245EB24039001112416
:10323000332339F03093420246CF81E0809341023C
:10324000F3CF81E0809342023ECF86E0EDE3F2E0EF
:10325000DF011D928A95E9F710923B0210923A0223
:1032600010923C020895809163020895CF93DF93FA
:1032700000D00F92CDB7DEB790918302943019F54C
:1032800089836A837B8382E08093E9008FEF90914A
:10329000E800815095FD06C095ED9A95F1F7000084
:1032A0008111F5CF8091E80085FF0DC050E040E02E
:1032B00063E070E0CE0101960E945D1B8091E80002
:1032C0008E778093E8000F900F900F90DF91CF9151
:1032D0000895BC0184E00C943619BC0183E00C9481
:1032E000361922E02093E9002FEF3091E8002150B9
:1032F00035FD06C035ED3A95F1F700002111F5CF07
:103300002091E80025FF0BC050E040E066E070E04F
:103310000E945D1B8091E8008E778093E8000895FD
:10332000CF93DF93D82FC92F809114018823C1F147
:1033300080917D0287FF34C060E282E08093E900E3
:103340008FEF9091E800815095FD06C095ED9A951C
:10335000F1F700008111F5CF8091E80085FF1DC0D5
:103360008091140170E050E040E0811104C050E011
:1033700040E068E070E08D2F9C2F0E945D1B8091E3
:10338000E8008E778093E80080E2ED2FFC2FA3E425
:10339000B2E001900D928A95E1F7DF91CF91089507
:1033A00068E081E0CBCF80918202811109C00E9448
:1033B000E51C0E94421D8091E20084608093E2003F
:1033C0000895109282020895089508950C94CF15DF
:1033D00042E061EC81E00E94611C42E261EC82E02B
:1033E0000C94611C80918502893089F148F4823007
:1033F00009F49DC0833009F458C0813041F008952C
:103400008A3009F484C08B3009F46AC00895809131
:103410008402813A09F048C08091E800877F809358
:10342000E8008091880290918902892B61F460E222
:1034300083E492E070E00E94AC1B8091E8008B77FF
:103440008093E800089560E090E080E0F3CF809101
:103450008402813249F58091880290918902029715
:1034600018F58091E800877F8093E8008091E8005C
:1034700082FF16C09091F3008091F200029729F428
:103480008091F1008B7F813021F48091F100809355
:1034900063028091E8008B778093E8000C94951C80
:1034A000809183028111E2CF089580918402813A54
:1034B000D9F78091880290918902892BA9F7809190
:1034C000E800877F8093E8008091E80080FFFCCFD0
:1034D000809114018093F1008091E8008E77DCCF19
:1034E00080918402813201F7809188029091890253
:1034F000892BD1F68091E800877F8093E8000E94B5
:10350000951C80918602809314010C94270D809164
:103510008402813249F68091E800877F8093E80039
:103520000E94951C80918702809364020895809187
:103530008402813A09F0B8CF8091E800877F8093B8
:10354000E8008091E80080FFFCCF80916402C2CF48
:1035500084B7877F84BF0FB6F894A89580916000E8
:10356000886180936000109260000FBE80E890E058
:103570000FB6F89480936100909361000FBE0E9493
:1035800006090E94E51C0E94421D8091E2008460B1
:103590008093E20078940E94CA1F0E9412098AE078
:1035A00091E00E94910880918302853039F00E9459
:1035B0001A090E9410090E941109F5CF0E9487156F
:1035C00080918102882379F30E94B815882359F3EA
:1035D0000E94471BE8CF0C94ED1AFC01CB01DA01E5
:1035E0002F2F332723303105D1F070F421303105EE
:1035F00009F43EC02230310569F48BE390E025EBFD
:1036000032E02D933C93089521323105E9F02232C6
:10361000310521F190E080E030E020E0F2CFCF01F1
:103620009927E13059F08230910559F0E1EBF2E051
:10363000892B81F7849190E09F01E3CFEBE9F2E0E1
:10364000F9CFEFE8F2E0F6CF892BB9F061307105E0
:1036500009F789E090E020EE32E0D3CF892B91F09A
:1036600061307105B9F68CEB90E022E033E0C9CF10
:1036700082E190E020EF32E0C4CF89E090E027ECD7
:1036800032E0BFCF80E490E02EEB33E0BACF80E1B0
:1036900089BD82E189BD09B400FEFDCF8091D800CB
:1036A0008F7D8093D8008091E00082608093E0005D
:1036B0008091E00081FDFCCF0895AF92BF92CF9240
:1036C000DF92FF920F931F93CF93DF936C01EB0177
:1036D0008A010E94B41CF82E811123C00115110526
:1036E00039F0F80180819181C81BD90BC80ED91E11
:1036F000B12CA12C2097A9F08091E80085FD22C073
:103700008091E8008E778093E80001151105A1F003
:10371000F80180819181A80EB91EB182A08285E056
:10372000F82E8F2DDF91CF911F910F91FF90DF9099
:10373000CF90BF90AF9008950E94B41C8823D1F21F
:10374000F82EEFCFF60181916F018093F100219760
:10375000FFEFAF1ABF0ACECFFC01CB0120918A0246
:1037600030918B022617370790F0009729F42091AB
:10377000E8002E772093E80040E0009751F44111D3
:1037800008C08091E80082FF31C080E00895C9013F
:10379000F3CF209183022223A9F12530A9F12091B2
:1037A000E80023FD2DC02091E80022FDEACF209102
:1037B000E80020FFE2CF3091F3002091F200009763
:1037C00019F02830310558F041E02830310509F072
:1037D00040E02091E8002E772093E800CECF419181
:1037E0004093F10001972F5F3F4FE9CF8091830213
:1037F000882341F0853041F08091E80083FFC1CFFC
:1038000081E0089582E0089583E00895FC01CB01F2
:1038100020918A0230918B022617370790F000978B
:1038200029F42091E8002E772093E80040E00097EB
:1038300051F4411108C08091E80082FF32C080E05D
:103840000895C901F3CF209183022223B1F12530DD
:10385000B1F12091E80023FD2EC02091E80022FD67
:10386000EACF2091E80020FFE2CF3091F3002091D1
:10387000F200009719F02830310558F041E0283067
:10388000310509F040E02091E8002E772093E80010
:10389000CECF44914093F100319601972F5F3F4F77
:1038A000E8CF80918302882341F0853041F08091F8
:1038B000E80083FFC0CF81E0089582E0089583E0AF
:1038C0000895982F973028F08F708093E90081E059
:1038D00008959093E900242F762F50E0981731F047
:1038E0007091EC002091ED005091F00021FD02C09C
:1038F0009F5FE8CF3091EB003E7F3093EB0030913B
:10390000ED003D7F3093ED003091EB00316030935E
:10391000EB007093EC002093ED005093F0002091A9
:10392000EE0027FDE5CF80E008958091840287FFB7
:1039300013C08091E80082FF06C08091E8008B7779
:103940008093E80004C0809183028111F2CF089532
:10395000809183028823D9F38091E80080FFF8CF1B
:103960008091E8008E77ECCF2091E4003091E50063
:1039700095E6A9012091EC00822F817020FF06C0FE
:103980008091E80080FF06C080E008952091E80063
:1039900022FD1AC080918302882389F0853089F046
:1039A0008091EB0085FD0FC02091E4003091E5008F
:1039B00042175307F9F29150E1F684E0089582E04E
:1039C000089583E0089581E008950E94531D0E94A8
:1039D0005B1DE0EEF0E0808181608083E8EDF0E047
:1039E00080818F77808319BCA7EDB0E08C918E7FAA
:1039F0008C9380818F7E80831092820208950F9332
:103A00001F93CF93DF930E94531D0E945B1DC8ED4F
:103A1000D0E088818F7788838881806888838881D7
:103A20008F7D888319BC1092830210927F021092BE
:103A300081021092800200EE10E0F80180818B7FFD
:103A4000808388818160888342E060E080E00E941A
:103A5000611CE1EEF0E080818E7F8083E2EEF0E099
:103A6000808181608083808188608083F80180818B
:103A70008E7F8083888180618883DF91CF911F91C1
:103A80000F910895E8EDF0E080818F7E8083E7ED6F
:103A9000F0E080818160808384E082BF81E0809358
:103AA00082020C94FF1CE8EDF0E080818E7F808321
:103AB0001092E20008951092DA001092E100089549
:103AC0001F920F920FB60F9211242F933F934F9393
:103AD0005F936F937F938F939F93AF93BF93EF9376
:103AE000FF938091E10082FF0BC08091E20082FF92
:103AF00007C08091E1008B7F8093E1000E94C91F85
:103B00008091DA0080FF19C08091D80080FF15C035
:103B10008091DA008E7F8093DA008091D90080FF57
:103B200094C080E189BD82E189BD09B400FEFDCF6A
:103B300081E0809383020E94D3198091E10080FF8D
:103B400019C08091E20080FF15C08091E2008E7F55
:103B50008093E2008091E20080618093E200809196
:103B6000D80080628093D80019BC85E080938302DE
:103B70000E94E5198091E10084FF29C08091E20054
:103B800084FF25C080E189BD82E189BD09B400FEC2
:103B9000FDCF8091D8008F7D8093D8008091E10087
:103BA0008F7E8093E1008091E2008F7E8093E2001F
:103BB0008091E20081608093E20080917F028823FF
:103BC00009F449C084E0809383020E94E619809141
:103BD000E10083FF29C08091E20083FF25C080912E
:103BE000E100877F8093E10082E08093830210925E
:103BF0007F028091E1008E7F8093E1008091E2005E
:103C00008E7F8093E2008091E20080618093E200E9
:103C100042E060E080E00E94611C8091F0008860DA
:103C20008093F0000E94E419FF91EF91BF91AF9152
:103C30009F918F917F916F915F914F913F912F91C4
:103C40000F900FBE0F901F90189519BC1092830211
:103C50000E94E11972CF8091E30087FD02C081E0EC
:103C6000B2CF83E0B0CF1F920F920FB60F92112404
:103C70002F933F934F935F936F937F938F939F9374
:103C8000AF93BF93CF93DF93EF93FF93D091E9006E
:103C9000DF708091EC00C82FC17080FDC0E81092E9
:103CA000E9008091F000877F8093F00078940E9473
:103CB000771E1092E9008091F00088608093F000F8
:103CC000CD2BCF70C093E900FF91EF91DF91CF91A1
:103CD000BF91AF919F918F917F916F915F914F9124
:103CE0003F912F910F900FBE0F901F9018951F932B
:103CF000CF93DF93CDB7DEB7AA970FB6F894DEBFA8
:103D00000FBECDBF84E892E0FC0101962091F10046
:103D1000208322E08C389207B9F70E94F219809133
:103D2000E80083FF1EC180918402909185029A3041
:103D300008F017C1E92FF0E0ED57FF4D0C94F91F83
:103D4000803899F0823809F00CC1809188028F7018
:103D5000873008F006C18093E9008091EB0085FB75
:103D6000882780F91092E90006C080918002909126
:103D70008102911182609091E800977F9093E80012
:103D80008093F1001092F1008091E8008E77E5C0F9
:103D9000882309F4D3C0823009F0E3C08091860201
:103DA0008111D6C0809188028F702FEF280F2630A6
:103DB00008F0D7C08093E9002091EB0020FFC8C035
:103DC000933031F48091EB0080628093EB00C0C0AF
:103DD0009091EB0090619093EB0021E030E001C006
:103DE000220F8A95EAF72093EA001092EA00809168
:103DF000EB008860EACF8111B4C0109186021F7772
:103E00008091E3008078812B8093E3008091E8002B
:103E1000877F8093E8000E94951C8091E80080FFD6
:103E2000FCCF8091E30080688093E30082E0111171
:103E300083E08093830295C08058823008F091C05F
:103E400080918602909187028C3D23E09207A1F534
:103E500083E08A838AE289834FB7F894DE01139660
:103E600020E03EE051E2E32FF0E050935700E49170
:103E700020FF03C0E295EF703F5FEF708E2F90E060
:103E8000EA30C0F0C7968D939D932F5F243159F788
:103E90004FBF8091E800877F8093E8006AE270E07E
:103EA000CE0101960E94AC1B8091E8008B77809335
:103EB000E80057C0C096E7CF6091880270918902F0
:103EC000AE014F5F5F4F0E94EB1ABC01892B09F4D2
:103ED00048C08091E800877F8093E80089819A81BB
:103EE0000E94061CE1CF8038E1F58091E800877FD1
:103EF0008093E80080917F028093F10045CF81118B
:103F000030C090918602923060F58091E800877F02
:103F10008093E80090937F020E94951C80917F021D
:103F2000882311F084E005C08091E30087FDFACF7B
:103F300081E0809383020E94E81913C08091860279
:103F4000813079F481E0933009F080E08093810240
:103F50001092E9008091E800877F8093E8000E943A
:103F6000951C8091E80083FF0AC08091E800877F5C
:103F70008093E8008091EB0080628093EB00AA962A
:103F80000FB6F894DEBF0FBECDBFDF91CF911F916A
:103F900008950895CF93809183028823A1F0C09162
:103FA000E900CF709091EC00892F817090FD80E83E
:103FB000C82B1092E9008091E80083FD0E94771ED3
:103FC000CF70C093E900CF91089597FB072E16F4A8
:103FD000009407D077FD09D00E94FF1F07FC05D091
:103FE0003EF4909581959F4F0895709561957F4F10
:103FF0000895EE0FFF1F0590F491E02D0994AA1B80
:10400000BB1B51E107C0AA1FBB1FA617B70710F0C3
:10401000A61BB70B881F991F5A95A9F780959095F5
:10402000BC01CD010895F999FECF92BD81BDF89AEA
:10403000992780B50895A8E1B0E042E050E00C94E3
:104040004720262FF999FECF92BD81BDF89A01979E
:1040500000B4021639F01FBA20BD0FB6F894FA9AD0
:10406000F99A0FBE08950396272F0E9422200E94DE
:104070002120252F0E942220242F0C9422200196FB
:10408000272F0E9422200C942120DC01CB01FC016F
:10409000F999FECF06C0F2BDE1BDF89A319600B4A1
:1040A0000D9241505040B8F70895F894FFCFDC07C7
:1040B000E207E607F407F807FC07000806080E0801
:1040C000120816081A0826082A082E083208380886
:1040D00056084008EA07F0071E0822080A083C08AC
:1040E0004C085F086308B80AB80A1A0B1A0B6F0B62
:1040F0008B0BE80AE80A960B400C510C510CB20CE1
:10410000E80AE80ABB0CA01EC81EB11FC81EB11FDA
:0A411000FB1E1C1FB11F731F7F1F51
:10411A0011022808641E140A321E331990197119E3
:10412A006D19691901E200E900EA00B500B600B7A5
:10413A0000CD008301CC008A01920194012102235F
:10414A000224022502260227022A02B300B4006FC3
:10415A00007000F4F5F6F731363435333293929124
:10416A0090946697C6E200E900EA00B500B600B787
:10417A0000CD008301CC008A01920194012102231F
:10418A000224022502260227022A02B300B4006F83
:04419A0000700000B1
:00000001FF
